:020000041000EA
:1000000000B5324B212058609868022188439860DF
:10001000D860186158612E4B002199600221596106
:100020000121F02299502B49196001219960352056
:1000300000F044F80222904214D00621196600F024
:1000400034F8196E01211966002018661A6600F04E
:100050002CF8196E196E196E052000F02FF8012189
:100060000842F9D1002199601B49196000215960AB
:100070001A491B48016001219960EB211966A021F2
:10008000196600F012F800219960164914480160C1
:100090000121996001BC002800D000471248134993
:1000A000086003C880F30888084703B5996A0420EC
:1000B0000142FBD001200142F8D103BD02B5186610
:1000C0001866FFF7F2FF186E186E02BD00000240BE
:1000D000000000180000070000035F00212200005C
:1000E000F4000018222000A00001001008ED00E03C
:1000F00000000000000000000000000074B24E7A12
:1001000000200420F7010010C3010010C5010010F9
:10011000C1010010C1010010C1010010C101001097
:10012000C1010010C1010010C1010010C701001081
:10013000C1010010C1010010C9010010CB01001065
:10014000CD010010CD010010CD010010CD01001037
:10015000CD010010CD010010CD010010CD01001027
:10016000CD010010CD010010CD010010CD01001017
:10017000CD010010CD010010CD010010CD01001007
:10018000CD010010CD010010CD010010CD010010F7
:10019000CD010010CD010010CD010010CD010010E7
:1001A000CD010010CD010010CD010010CD010010D7
:1001B000CD010010CD010010CD010010CD010010C7
:1001C00000BE00BE00BE00BE00BE00BEEFF3058054
:1001D000103800BEF2EB8871C84B0010F04B0010D5
:1001E0003402001090A31AE700201F49086006C8D7
:1001F00081F3088810471D48006800282FD10DA4FE
:100200000ECC002902D000F012F8F9E71849194A7B
:10021000002000E001C19142FCD1174988471749ED
:1002200088471749884700BEFDE701C901C29A42C5
:10023000FBD37047F04B0010C0000020700F00206F
:10024000A05A00100000042000000420A05A001052
:10025000001004200010042000000000704709482E
:1002600001F048FE0047000008ED00E0000000D06B
:10027000700F0020F41C00206D1D00104D030010B5
:10028000611E00105756000006005250ABB3605379
:100290008449001006005250861C03029449001045
:1002A000060052505422A29DA4490010050052504D
:1002B000DE65F468A05A0010F8B5C0460648074944
:1002C000091A8B10C90FC91810B5491003D0044B77
:1002D000002B00D0984710BD700F0020700F002039
:1002E00000000000054B10B5002B03D00449054861
:1002F00000E000BFFFF7E2FF10BDC04600000000B5
:10030000801C0020A848001030B583B06B46D91D72
:100310000870C046C046C046D02420252406A561EA
:10032000C046C046C0460122074804F095FAC046C0
:10033000C046C0466561C046C046C046012000F0C8
:100340006FFF03B030BDC04600C0034070B5D0247D
:10035000202582B002F030F82D492E4804F09AF999
:100360000121122000F05EF80121132000F05AF85C
:100370000121102000F056F82406052000F06AF84C
:10038000656236206561FFF7BFFFC046C046C046C4
:10039000A561C046C046C0461F4C01AD26002036B0
:1003A0002388022229001B482B80023404F054FACF
:1003B000B442F5D1C046C046C046D024202624060B
:1003C0006661C046C046C0462322144B9B5CC046B3
:1003D000C046C046A661C046C046C0465B322A70D1
:1003E00029006B70AB707B3A0A4804F035FAC046BE
:1003F000C046C0466661C046C046C0463520FFF7CD
:1004000083FF074801F050FF0A2000F009FFFBE7D7
:10041000404B4C0000C003405C0E0020380E002012
:10042000A8480010094A10B594464024830063444C
:100430001A68C00062408034144080225201134385
:100440001C60034B9C466044416010BD04C00140E9
:10045000004001400123D022834012069362936141
:10046000094A40219446830063441A68C0004A4008
:10047000803111408022520113431960034B9C4686
:10048000052360444360704704C0014000400140C0
:10049000024B18688007C00F7047C04600C0064076
:1004A00070B5EFF3108C72B60D4D2B68002BFCD09D
:1004B000BFF35F8F0724CB08C618C05C01230C4034
:1004C000A3401C000440034207D118433070BFF31F
:1004D0005F8F2C608CF3108870BD100001F0C4FC9D
:1004E0002C0100D0F8B54746CE46884680B5EFF3DC
:1004F000108C72B6214D2C68002CFCD0BFF35F8F9E
:100500009A422CD8D4080727055D06190124174004
:10051000BC402C421FD007210127894609E0D4089E
:10052000055D06194C4639001440A1400C002942D3
:1005300011D001329342F2D201204042BFF35F8FCB
:1005400000220E4B1A608CF3108800280FDBC0BC11
:10055000B946B046F8BD254310003570EEE7BFF34D
:100560005F8F00232B608CF31088012040424346AC
:10057000002BECD0089801F077FCC0462C0100D08D
:100580000021044B044ABFF35F8F02C39342FAD1A8
:100590007047C046000100D0800100D0044A1078A6
:1005A000431CDBB2172B00D9102313707047C046D1
:1005B0007C0E002010B5064B064C82B00100009363
:1005C00018221F232000FFF78DFF02B010BDC04688
:1005D000F0480010FC17002001238340002904D0BC
:1005E000034A1360034A13607047034A1360FBE732
:1005F00080E200E000E100E080E100E001238340D0
:10060000014A13607047C04600E200E0084B10301A
:100610009B688000C358002B07D0064A00209B1A15
:100620002F229A424041C0B270470020FCE7C046EA
:1006300000ED00E0800E0020024B10309B6880002F
:10064000C058704700ED00E070B50D00EFF3108664
:1006500072B60F4A1368002BFCD0BFF35F8F0D4BAF
:1006600010309B6884001B590B4A934203D09D4273
:1006700001D001F011FC074B9B681D51BFF35F8F48
:10068000BFF35F8F0022024B1A6086F3108870BDA3
:10069000240100D000ED00E0CD010010F0B5574678
:1006A0004E46DE464546E0B585B00600009117008F
:1006B000EFF3108B72B66A4A1368002BFCD0BFF3BD
:1006C0005F8F0025674B5D579A46002D00DA8BE05F
:1006D0006B00654C01935B199B009846A146C14491
:1006E0004B4652469B7910361370604BB6009B68A0
:1006F00099590B1B2F2B33D95D4B994200D0ACE09D
:10070000019B42469C465B4B6544AD0063535A4B8C
:100710000232A218043B9B1A1B05584A5B0D65194F
:1007200013436B80564B0121AB80FF23AB71009BC1
:10073000EF71AB604B460B4319004C4B9B689951D2
:10074000BFF35F8FBFF35F8F0022454B1A608BF3BF
:10075000108805B0F0BCBB46B246A946A046F0BD25
:1007600001200A008243D3798C46BB4231D84546EA
:10077000130044491B1B5B415943090D3D4B635317
:100780003D4B02356519043B5B1B1B053B4D5B0D67
:100790002B43AA464D466B800425AC465546E044A3
:1007A000131F44441B1B1B055B0D1D434B469971D6
:1007B00000999D8099604946DF71334B0143136076
:1007C000BBE75800C01880002018C179B94211D980
:1007D00002000623D356002BF3DA0293131D9A4628
:1007E0002A4B6146039319E001F056FB002553465E
:1007F0005D576DE7908802934005131D9A460315D7
:1008000061469C464046D444634604302018181A7A
:10081000E0230005400D1B021843039004235B42B4
:100820009C46E14450464B461B1A1B055B0D9C46FB
:10083000124B957198466346404603439380019B53
:100840005A199200039BA418A380029B0E4AA3711D
:10085000009B2260E771A3606FE701F01DFB4FE78B
:10086000240100D0ED1C0020800E002000ED00E0EF
:10087000CD01001000A1FFFFB00E002000E0FFFF3F
:1008800001BDFFFFAAAA00000148804701BD00008A
:10089000F0B5DE4657464E464546E0B50C0083B0FF
:1008A000EFF3108872B65D4A1368002BFCD0BFF3DB
:1008B0005F8F5B4B5B499A68030010339F00D559EB
:1008C0008D4239D0A5424AD0574EAA1B2F2A33D881
:1008D00001229246824091464846544A126810408E
:1008E00001904846524A1060BFF35F8FEFF30582D4
:1008F0009346002A35D0934201D001F0CDFA2A0068
:1009000053469A439068844208D175E04B005B18C7
:100910009B00F3189868A04234D01A000621515663
:100920000029F3DA844253D0019B002B26D04A469B
:10093000404B1A603D4B1A60394B9B68DD51BFF349
:100940005F8FBFF35F8F0022344B1A6088F31088EB
:1009500003B0F0BCBB46B246A946A046F0BD0D00B0
:10096000EAE72A0053469A4390688442D6D106208B
:1009700010561300002809DA0D0031E04A462C4BCE
:100980001A60D9E706201856002822DB4200111809
:10099000890074188A46A1689960E179D9710621A5
:1009A00061569971002925DBA488F11A6405241584
:1009B00054440919E0240905490D24022143998072
:1009C00013181D4A9B001178F31899711070ABE74A
:1009D00013005946002914D1FF31917117499180B4
:1009E00015490A789A71164A9B1B5B415A43120DAE
:1009F0000A7099E71349E2E7062010561300002811
:100A0000C4DA114A1149D21A083A5002400D014382
:100A100099800F4952080A43DA8085E7240100D003
:100A200000ED00E0CD010010800E002000E100E0AC
:100A300080E100E080E200E0ED1C002001BDFFFF4E
:100A4000AAAA000001BD0000BA0E002000F0FFFFBE
:100A500000F8FFFF70B5EFF3058101240443EFF3C5
:100A6000108C72B6214A1368002BFCD0BFF35F8F45
:100A70001F4B05001F4AED1A6D416A43120D1E4DB2
:100A80008900AE6852B27658A6421CD0062159564B
:100A900091421CD012215956914222D01E21595602
:100AA000914220D02A2159560324914210D0134B51
:100AB00019781A708171BFF35F8F00220B4B1A6097
:100AC0008CF3108870BDAB680D4C5C50EFE70024D0
:100AD0006100091989005B18FF2199710949998002
:100AE000E5E70124F4E70224F2E7C046240100D040
:100AF000800E0020AAAA000000ED00E0ED1C0020FE
:100B0000CD01001001BDFFFF054B064A1360064AE8
:100B1000136053609360D3601361536193617047B6
:100B20008080808000E400E004E400E010B5084B21
:100B3000084C82B001000093002205232000FFF73B
:100B4000D1FC002801DB1F23181A02B010BDC046DB
:100B50000C490010F21C0020024B9C4661448900A5
:100B6000016070474000003410B50400FFF716FD27
:100B700001002000FFF7F0FFFF232371BFF35F8F19
:100B800010BDC04610B50400FFF708FD01002000AD
:100B9000FFF7E2FFFF23A380BFF35F8F10BDC046C6
:100BA00010B504000120FFF705FD034BC3189B009F
:100BB0002360BFF35F8F10BD40000034034B9C46A1
:100BC000614489000160BFF35F8F704740000034CB
:100BD00083680B4810B584466144624412010901E0
:100BE00059189B185C684A680120944201D802D0C9
:100BF0000020C0B210BD1A680B689A42F9D8F7E716
:100C0000FFFFFF0F0A4B1968EFF3108072B60A68F6
:100C1000002AFCD0BFF35F8F1B68BFF35F8F0022F9
:100C20001A6080F3108840BF002000217047C04642
:100C3000BC1C0020F8B5574645464E46DE46E0B59A
:100C400098460CAB1C780DAB1B78070091469A4672
:100C50000568002C5ED1AC7B002C3BD06600296877
:100C60003619033E89194B78AB73002B00D1EB7317
:100C700000238B704B700B702D4BE218BB68120178
:100C80009B184A461A6042465A600A9A9A600B9A22
:100C9000DA6000238B704B700B706B7B9B46002BD4
:100CA0002BD022005946A8686B6898472A6800280C
:100CB00016D05B4658465B005B449619033BB07008
:100CC000D118D35C002B00D073705B460C706B7333
:100CD0005C4513D0F0BCBB46B246A946A046F8BD61
:100CE0005B465B005B44033BD3189C709119925D9B
:100CF000002A00D05A705B460B706C734A4643461C
:100D0000387D00F0AFFB051E0AD10E9B002BE1D011
:100D10001D70DFE7660029683619033E8919ABE7C5
:100D20005346002BF1D12100386800F0C5FDECE7F7
:100D3000FFFFFF0FF0B5DE4657464E4645460023FF
:100D4000E0B58BB00893674B8200D45800239B46D4
:100D5000099000F027FB02000B006068EFF3108A97
:100D600072B6564601680029FCD0B246BFF35F8FC9
:100D700021684F7B8C46002F2ED0A5685A49A94682
:100D800079180901894449460868496805000E0038
:100D9000AD1A9E41002E5FDD02000B00099800F0A5
:100DA00061FB00230022994600230692079300234B
:100DB00098466368BFF35F8F5A461A608AF31088BB
:100DC0004346002B12D10028C3D10BB0F0BCBB4668
:100DD000B246A946A046F0BD002300229946002352
:100DE00006920793002300209846E2E7089B4946B5
:100DF00018023843C047626805000E00EFF3108AFE
:100E000072B61368002BFCD0BFF35F8F002E40DB5F
:100E10002B00334302D02369002B55D12368D97BA3
:100E2000002905D01A68480041185218033A577033
:100E30009A7B002A00D19F73DF73E268013FD35D84
:100E40000133D3555B4623616368BFF35F8F5A4616
:100E50001A608AF310887CE7002E01D1002D9BD107
:100E60000021604600F0A6FC4B461A685B680692BB
:100E700007934B469B6898464B46DB689946E36868
:100E8000DB19013B1B7808931B02034323610020FD
:100E90008FE72369002BC1D0069A079B8021521B44
:100EA000B34109068B4202D30122104B524200216A
:100EB0000491013103914946019141462000029776
:100EC0000091FFF7B7FEBDE700F06CFA2A0033008F
:100ED00012184B41802109068B42E8D30122034BB3
:100EE0005242E4E7A01C0020FFFFFF0FFFFFFF7F3F
:100EF00010B5144C6368002B04D00A211248FFF788
:100F00002BFE10BD2300114A1021206800F068FB61
:100F1000032000F03BFA032000F012FB03200C49F1
:100F200000F05AFAFFF73AFB0A4B9C46032323755D
:100F3000D0231B061B6860446375074B800060600C
:100F4000DC60DAE7C80E0020BC1C0020D10B0010CA
:100F5000350D001040000034A01C002000487047F0
:100F6000C80E0020F0B557464E464546DE46E0B571
:100F700085B0019310AB1B780600039300239A46BB
:100F8000984600927268EFF3108B72B61368002BCC
:100F9000FCD0BFF35F8F3568AC7B002C00D16FE0D5
:100FA00067002B683F19033FDB195A78AA73002AA0
:100FB00000D1EA734B4AA118B2680901521800988F
:100FC0000199106051600E9991600F99D16042466D
:100FD0009A705A701A706B7B9946002B00D170E0A2
:100FE00022004946A8686B6898472A6800285BD0A9
:100FF0004B4648465B004B44D719033BB870D118A9
:10100000D35C002B00D07B704B460C706B734C454F
:1010100058D0F3681B19013B18787368BFF35F8FD2
:1010200042461A608BF310885346002B08D1000209
:10103000204305B0F0BCBB46B246A946A046F0BD71
:10104000039B002B4BD00E9B00200F999847030069
:1010500004000D000B4342D000291ADA009A019BCC
:10106000121BAB410092019380221206934204D3DB
:1010700001231D4C5B4200930194039B9A4681E738
:101080007368BFF35F8F1C608BF3108801204042B0
:10109000CFE700F087F9802224184D411206009412
:1010A00001959542E9D3E3E74B465B004B44033B94
:1010B000D3189C70D119D25D002A00D05A704B46CB
:1010C0000B706C73307D009A019B00F0CBF9824667
:1010D00000289ED02100306800F0EEFB99E7002048
:1010E000A7E7C046FFFFFF0FFFFFFF7FF8B50B002C
:1010F00004004168EFF3108572B60A68002AFCD03C
:10110000BFF35F8F2068D9B2427B8A4209D0FF26A5
:101110001E4002687700BE199219033A9278002A9D
:1011200012D0FF26E2681E409219013A1B0A12787B
:10113000DBB29A420DD000206368BFF35F8F0022BC
:101140001A6085F31088F8BD21699942F3D12261B4
:10115000F1E700F0B1FBEFE7407D7047F0B5040028
:101160000D0006267642F717C64636196F4100B5C0
:1011700084B08F4214D811D000F014F932003B0033
:10118000121A8B41002B15DC002B3ED020002900C9
:1011900000F012F904B080BCB846F0BD8642EBD92D
:1011A0000026002700F0FEF832003B00121A8B41A7
:1011B000002BE9DD002302930193154B32000093CD
:1011C00014483B00FFF7CEFE0028DFDB00239846E3
:1011D000BC46114A114F7B6A9C4504D8B96AB1429A
:1011E000D4D29C45D2D11168EFF3108072B60B684F
:1011F000002BFCD0BFF35F8F1368BFF35F8F4146B6
:10120000196080F3108820BFE5E7002ABED0D1E73F
:10121000050C0010C80E0020BC1C0020004005403A
:1012200070B5060000F0BEF8FA2204000D0000239D
:1012300030000021920000F017FF8023001969415F
:101240001B06994202D3012002494042FFF786FF64
:1012500070BDC046FFFFFF7F70B5EFF3058305004B
:101260000C0084B0002B0AD0164A0020536A9C421E
:1012700003D8926A0130AA421FD304B070BD124E47
:1012800002930193114B0200009330000B00FFF713
:1012900069FE011EE8DD20BF3000FFF727FF094B84
:1012A00000205A6A9442E8D89B6A0130AB42E4D2EB
:1012B000A41A631E9C41E0B2DFE7E31A5A1E934171
:1012C000D8B2DAE700400540C80E0020050C001037
:1012D000F0B5EFF30582D6464F4646461000C0B53E
:1012E0001038EFF3108872B6214C2368002BFCD025
:1012F000BFF35F8F0123190081401E4D1F006963FA
:10130000AA461D4D29601D4D2E78AC463500C540BE
:101310002F402B4215D053465F6A194B8500EB587E
:101320009F4218D36246174B8E43EB581670BFF39B
:101330005F8F0022226088F31088002B06D0984728
:1013400004E0BFF35F8F276088F31088E0BCBA46E3
:10135000B146A846F0BD0C4B92009C46624413680F
:101360001360BFF35F8F0023236088F31088EDE7DD
:10137000280100D0004005403C700540F11C0020D1
:10138000C81C0020E4160020D03F054010B5034BD8
:1013900001001800024AFFF783F810BDEC1C002082
:1013A00028490010034B596A0A00986A596A8A4210
:1013B000FAD1704700400540064A536A9942FCD86A
:1013C00007D1044B02E05A6A914202D19A6A8242E2
:1013D000F9D370470040054070B504000D00EFF3ED
:1013E000108672B61A4A1368002BFCD0BFF35F8FC9
:1013F000002D1BD02000FFF71FF9164981420AD0AB
:101400002000FFF721F901212000FFF7E5F8012373
:10141000A340114A1360114BA400E550BFF35F8F46
:1014200000220B4B1A6086F3108870BD0121A14089
:101430000A4BA200D5500A4B20001A788A4305496E
:101440001A70FFF725FA00212000FFF7C5F8E5E73D
:10145000280100D0D112001038600540E4160020A9
:10146000F11C0020F0B54F46D6464646C0B50700F1
:101470002E4C616A0D00A66A616AA942FAD18B42BC
:1014800008D805D00120E0BCBA46B146A846F0BD58
:10149000B242F7D9EFF3108A72B6254801680029E5
:1014A000FCD0BFF35F8F0125BD4022491F4C884609
:1014B000097889462943C9B28C464146604608707E
:1014C000391D890065630A511B49B8004350216AE0
:1014D0000020294219D0616A0800A66A616A814227
:1014E000FAD18B4219D801D1B24216D8CC450BD0D3
:1014F0000E4B1F221D625D6301233A4093400F4A49
:10150000136043464A461A700120BFF35F8F0022E2
:10151000074B1A608AF31088B5E70020BFF35F8F8E
:101520000022034B1A608AF31088ACE700400540A4
:10153000280100D0F11C0020C81C002080E200E03F
:10154000EFF3108C72B60A490B68002BFCD0BFF386
:101550005F8F01238340074A0748136202789A434A
:101560000270BFF35F8F00230B608CF3108870470D
:10157000280100D000400540F11C002070B5050096
:101580000E001400002923D0002A12D080686B6856
:101590009847296800280ED063001B197200033B8E
:1015A0009219CB18033A9E7088188A5C002A11D1D0
:1015B0000470300070BD73009B196200033B121968
:1015C000CB18033A9C7088188A5C002A05D10670F3
:1015D0002000EFE75A700470EBE75A700670F7E7E7
:1015E00030B583600023CCB243730133047342608F
:1015F0008373C4730D000068012C06D9421C0133AB
:10160000DBB2137003329C42F9D1FF2129404B0019
:101610005B18C01800230338437030BD70B5050057
:101620000C1E07D0630001681B19033BCB185A78C6
:10163000002A01D1200070BD50008018033809181D
:1016400000204E784870210058702800FFF796FF60
:10165000310004002800FFF7E1FF0600002C26D02F
:101660000028E7D021003200A8686B6898472968F5
:1016700000280ED073009B196200033B1219CB188F
:10168000033A9C7088188A5C002A00D05A70067051
:10169000D0E763001B197200033B9219CB18033A81
:1016A0009E7088188A5C002A00D05A70047034003A
:1016B000C0E7C046F0B557464546DE464E46E0B563
:1016C0000D006F0001687F19033F0400C85D83B0FF
:1016D0000192CA19002850D043001B18033BCB18B5
:1016E0005E78B446002E1AD1019E002E42D0E67BD1
:1016F000002E04D073009B19CB18033B5D70A37BB5
:10170000002B00D1A573E57300282FD1002353705F
:1017100003B0F0BCBB46B246A946A046F0BD72007D
:101720006244033A8A1851788846002151708946EC
:101730005970320001002000FFF720FF4346824627
:10174000002B07D05B0021684344033BCB185A7839
:10175000002A16D1424651462000FFF70FFF2168AC
:10176000019BCA19002BC2D10028CFD043001B18FF
:10177000033BCB1800219970C8E7019B002BB6D121
:10178000C4E7500080180338091848788346484653
:101790004870587041462000FFF7F0FE59468046D9
:1017A0002000FFF73BFF414602002000FFF7E6FE66
:1017B0008046CFE7F0B557464546DE464E46E0B593
:1017C00083B00191457B04006F0000687F19033FDF
:1017D000C15DC219002952D04B005B18033BC318EE
:1017E0005E78B446002E1CD1019E002E44D0E67BCC
:1017F000002E04D073009B19C318033B5D70A37BBC
:10180000002B00D1A573E573002931D100232800F6
:101810005370617303B0F0BCBB46B246A946A04604
:10182000F0BD72006244033A82185078804600206E
:1018300050708146587032002000FFF79FFE4346EB
:101840008246002B07D05B0021684344033BCB1842
:101850005A78002A17D1424651462000FFF78EFEE3
:10186000019B01002068C219002BC0D10029CDD0F6
:101870004B005B18033BC31800209870C6E7019B20
:10188000002BB4D1C2E750008018033809184878FB
:10189000834648464870587041462000FFF76EFE68
:1018A000594680462000FFF7B9FE4146020020005D
:1018B000FFF764FE8046CEE770B5050000292CD006
:1018C000437B8B422ED04C0000686418033C041903
:1018D000A278002A21D053009B18033BC25CC61893
:1018E0008A4202D11BE0002A08D053009B18033B18
:1018F000C3185A788A42F6D162785A7000230122BE
:101900002800A3706370FFF7D5FE697B02002800F2
:10191000FFF734FE6873012000E0002070BD63789B
:101920003370EBE701221900FFF7C4FEF2E7C0466F
:1019300010B50C2082B000F0AFF9FEF7A9FD002829
:1019400010D0864B86488649864A18605960986050
:10195000D960186159619861D961186259625A62F7
:1019600002B010BD804CA06700F0ECF901227F4B63
:101970001A60636C012BFCD103227D4B1A607A4AFA
:10198000936B012BFCD1013301217A4A7A480093F1
:10199000043300F02DF90523784A0093012178489B
:1019A00000F026F9774B5A68FF2A02D880225200AD
:1019B0005A6080226E4B694C12011A60216900291D
:1019C00005D0606900F0C8FA01300138FDD1E0228D
:1019D0006C4B6D4819680A40026002221968514038
:1019E00001320A40042102609A681142FCD0802131
:1019F000664A09011160802252005A60644B2361DB
:101A0000644B5968FF2900D85A6003220121574BC3
:101A10001A60604A93681942FCD0E02310680340C2
:101A20005D480360126803234A4002211340594A6B
:101A3000036093681942FCD08021584B090119605A
:101A40008021574B490051606361564B5A68FF2A09
:101A500000D859608022544B12011A60E1690029B4
:101A600005D0606900F078FA01300138FDD1E0233B
:101A70004C4A11680B404D490B6080214C4B0901C9
:101A800019608021364B49005160E361494B5A6827
:101A9000FF2A00D859608022474B12011A60216A40
:101AA000002905D0606900F057FA01300138FDD1F6
:101AB000E023404A11680B4040490B608021404BB5
:101AC0000901196080235B0053608022244BD202FD
:101AD00023623C4B5968914200D25A6080223A4BB3
:101AE00012011A60616A002905D0606900F034FAB9
:101AF00001300138FDD1E023324A11680B403349EF
:101B00000B608021324B090119608023DB02536096
:101B1000144B63622F4B5A68FF2A02D8802252006E
:101B20005A6080222C4B12011A60A169002905D04D
:101B3000606900F011FA01300138FDD1E023254A37
:101B400011680B4025490B608021254B0901196064
:101B500080235B005360124BA36101E7700F0020EC
:101B6000006CDC021BB70000008000403CB000406D
:101B700030B00040002F685900800240008C86473A
:101B800000C00240308000403090004030A0004053
:101B9000001BB7003C8000403C9000403CA000404F
:101BA000405973075480004054B0004054900040A6
:101BB00054A000406080004060B000406090004051
:101BC00060A000406C8000406CB000406C90004011
:101BD0006CA000404880004048B000404890004061
:101BE00048A00040014B8000C0587047700F002093
:101BF000F8B504000C2017001D000E0000F0ACF931
:101C000043011B1A9901C91AC90009188901380032
:101C100000F0A2F9069B29041B0319432368002B3B
:101C200020DB194B194DE3185A42534180225201CF
:101C300094461B03164A63441360164A13601F0040
:101C4000AA689743FBD1C023221D9B011343212285
:101C50002660A0601A602268002AFCDA0822E1608F
:101C60001A60F8BD3F2322681340B342D9D1A3685C
:101C70001B051B0D8342D4D1EE22E368D202134030
:101C80008B42CED1EDE7C0460040FDBF00C0004012
:101C900000E0004000F000408023024A9B00034324
:101CA000D36270470080054010B580241C4BE405CA
:101CB0001C6000281AD001231A4C18431A4BDC610F
:101CC0001A4C44401C62596298628021144BC90529
:101CD0001960174817490860E021C9041960002AF3
:101CE00007D18022144B12061A6010BD0E4BD8612A
:101CF000EBE753019B1A9B009A18802312015B04A7
:101D00009A4209D213000D490B60074B5A6080229A
:101D1000094BD2051A60E8E7094B1A00F3E7C04601
:101D200000B00540D3C007B0008005402D3FF84FFC
:101D3000FCFF01000820014000A00540781C0020A5
:101D4000FFFFFF00AA23064A1B0113602F2305494A
:101D5000D360054B19605368002BFCDA7047C0460E
:101D60000040024000B0FA00006002402C4B2D4AB7
:101D700070B51A602C4A2D4B2D491A6014008B68DF
:101D80009C43FBD12B4D2C4EB54208D2013E761B15
:101D9000B60808CD984723000134B342F9D1FFF7C4
:101DA000C7FD264A214B1A60214A9368DB43DB01B9
:101DB000DD09002BF9D14022214B224C224E9A679B
:101DC0005A671A67DA66B44208D223682000002BEB
:101DD00020D00834FEF7D6FEB442F6D31B4C1C4E7E
:101DE000C022B168200000F0AFF9B460FEF7C8FB74
:101DF000FEF78AFEFFF77CF8164C174EB44208D265
:101E0000013E361BB60808CC98472B0001359E4290
:101E1000F9D170BD0834FEF7A7FEB442D5D3DDE793
:101E200000E00040BFCDFBFEFE7F3C0000F0004024
:101E300000C00040580F0020680F0020FFFFFF0186
:101E400000F00140500F0020580F0020000000203B
:101E500000ED00E0680F0020700F002000BEFDE7DD
:101E600010B5FFF7FBFFC0460FB400B5084883B0BC
:101E700000F01AFA049B002B07D005A91800019165
:101E800000F018F8034800F00FFA0120FFF7E6FF12
:101E90004C4900105C49001010B50148FFF7E4FF01
:101EA0006049001010B5002800D110BD00F0B0F955
:101EB000FBE7C04610B5094A0300146884B0002C43
:101EC00008D0012200910648524203A9A0470120F0
:101ED00004B010BD00F0E8F90020F9E7741C002000
:101EE000A51E001001480421014B1847F00E0020E8
:101EF000151F0010142310B50100188804331B8827
:101F0000984710BD162310B50100188802331B88AE
:101F1000984710BDF8B54746CE4680B50F1E19D07C
:101F200014239946043304000025012698464B46A5
:101F30001888434621681B88984701C4431E98416E
:101F4000013540420640AF42F1D13000C0BCB94635
:101F5000B046F8BD0126F8E7114A936F9B0813D2EB
:101F600010665166002905D0FFE7FFE7FFE7516FD4
:101F7000106F704704B5002801D00020C04302F064
:101F800053FC002104BDC046F0B5146E556E576F6A
:101F9000166FFFF7E5FF1466556657671667F0BDC5
:101FA000000000D0132370B51D78012D15D010DD71
:101FB0001D48FFF7A7FF1D4C01008022200000F004
:101FC000C3F8022D2DD01A48FFF794FF194B186063
:101FD00070BD194B154CA364F5E7174B134C2360E8
:101FE0006360A360E36023616361A361E3612362D3
:101FF0006362A362E36223636363A363E3632364B3
:102000006364A364E36423656365A365E365236692
:102010006366A366E36623676367A367E367A364F6
:10202000D1E7054BA364CEE753440000A010002085
:102030004C330000B81C00203D20001007B560465E
:1020400001880A0A0230DF2AFAD1C9B2820804D311
:10205000028840880004104300E00068014A5050A4
:10206000039007BDA010002051434343C9188C467C
:10207000110C83B24B4310B4040C614392B280B292
:10208000504362431C041B0C001910BC594113043B
:10209000120CC0185141614470470000132310B561
:1020A00012481C78FFF72EFF0100012C0AD003DD37
:1020B00080220F4800F048F80E48FFF71BFF0E4B38
:1020C000186010BD0A4C5422200000F03DF80B4B64
:1020D0006365A365E36523666366A366E3662367BA
:1020E0006367A367E3672362E361E5E753460000A4
:1020F000A01100204C330000B81C0020012100106A
:1021000007B5604601880A0A0230DF2AFAD1C9B24F
:10211000820804D3028840880004104300E000686D
:10212000014A5050039007BDA0110020014804212E
:10213000014B1847000F0020151F0010014B1B68B2
:1021400018470000000F0020014B5B681847000093
:10215000000F0020F0B546464F46D646C0B5437D39
:1021600080460E001700002B4BD0002A32DD274B93
:1021700001259A464B1E00240020994607E0335D56
:102180000A2B2CD02B0001340135BB4213DA002C72
:10219000F5D133780A2BF5D143461B7D002BF1D1C5
:1021A0004346504602211B68984728002B00013403
:1021B0000135BB42EBDB874204DD4346391A1B681D
:1021C00030189847F619013E33780D3B5A42534177
:1021D00042461375E0BCBA46B146A846F0BD4B4630
:1021E0001B5D0D2BCED0A042DADA4346211A1B68C4
:1021F000301898474346504602211B6898472800EC
:10220000D4E70368110030009847E3E7D449001091
:10221000F0B5CE46474680B583B06B460600DD1D5F
:102220002870FFF7BFF800231A4A12184B4180218B
:1022300009068B4202D30122174B5242174908006C
:10224000884602F011FB164B81461C68002C14D006
:10225000144F02E02469002C0FD02368002BF9D022
:102260003B68002B01D0A342F4D1200001222900B9
:10227000FFF770FF2469002CEFD14B46002B05D1EE
:10228000300003B0C0BCB946B046F0BD404602F0D5
:10229000BBFAF5E740420F00FFFFFF7F500F002021
:1022A0006818002070180020F0B5DE4657464E46EC
:1022B0004546E0B585B0070002F064FA0600FFF776
:1022C00071F800232B4A12184B41802109068B42DA
:1022D00002D30122284B5242284908008B4602F0C3
:1022E000C3FA274B01901C689A46002C3BD0254B23
:1022F000984602ABDD1D0A23994602E02469002CB2
:1023000017D02368002BF9D043461B68002B01D05F
:10231000A342F3D1200032003900FFF71BFF4B46E8
:102320002000012229002B70FFF714FF2469002CE4
:10233000E7D1019B002B18D153461C68002C06D016
:102340006368002B0BD098472469002CF8D130002B
:1023500005B0F0BCBB46B246A946A046F0BD246914
:10236000002CEDD1F3E70028F1D0584602F04CFAEA
:10237000E2E7C04640420F00FFFFFF7F500F002002
:1023800068180020701800200A4A1368002B05D135
:102390000CE01A001B691032002B07D09842F8D1CC
:1023A000002902D103691360016170470029FCD044
:1023B0001060FAE76818002010B500F0D9F910BDD8
:1023C0007047C0460022014B1A707047EE1C002077
:1023D0004B790020FF2B0BD18B79002B08D1CB79C7
:1023E000012B05D1082A03D9024B8A7809301A70CB
:1023F0007047C046EE1C00200120704770B50129CF
:1024000001D0012070BD13495379107909781B025E
:10241000034300209942F5D15378012B08D0022BB9
:10242000F0D1002064220021FFF73EFC0120E9E703
:102430009478D278050012021443D20502D5620ABC
:1024400093401D000448FFF755FD7F210300214004
:1024500028009847EE1C002055420000012303701D
:1024600000487047D84900104B780A781B02134384
:102470008A7810B512041A43CB781B0613439622B0
:10248000D200934200D010BD0348FFF733FD002176
:10249000030008009847C04655420000024B1860F0
:1024A000024B19607047C046F4170020F81700204F
:1024B00010B5024B1878FEF7A1F810BDEF1C0020F4
:1024C000114B70B51A68002A1AD0EFF3108172B65A
:1024D00010680028FCD0BFF35F8F00200B4A5960C2
:1024E00010701B68BFF35F8F186081F310880024A1
:1024F0000025074B1878FEF781F82900200070BDF1
:10250000FA240025A400F4E7981C0020F01C002009
:10251000EF1C002070B5040000200E0001F014FB39
:10252000002836D0002001F027FB002831D0FEF72C
:1025300039FF0023184A12184B41802109068B42AB
:1025400016D2164D280002F08FF9002821D0002065
:1025500001F0FAFA00280FD101200021404200F0DA
:10256000C3FC03246442280002F04EF9200070BD31
:1025700001220B4B5242E4E7002001F0FDFA002853
:10258000EAD021003200002001F002FB041EEAD153
:10259000E7E703246442E9E740420F00C01C002043
:1025A000FFFFFF7FF8B5DE46574680B505000C00FB
:1025B000FEF7F8FE0023374A12184B418021090626
:1025C0008B4202D30122344B5242344908008A46DE
:1025D00002F04AF9002803D1C0BCBB46B246F8BDA0
:1025E000002001F0B1FA00284AD00026002C43DD7B
:1025F0002B4B9B4614E0A919002001F03DFB07007E
:1026000001200021404200F06FFC002001F0F8FAA8
:10261000FEF7C8FE224BF61918605960B4422BDD54
:10262000002001F043FBA71B0200B84200DD3A0086
:10263000002AE0D101200021404200F055FC00209A
:1026400001F0DEFA002001F07FFA002814D000200B
:1026500001F02CFB0028E1D1FEF7A4FE5B460F0041
:102660001A685B68002184460E4812184B419F424D
:1026700002D8D3D19445D1D9504602F0C5F8ABE782
:1026800000200021064B18605960504602F0BCF84B
:10269000A2E7C04640420F00FFFFFF7FC01C0020A2
:1026A0009810002020A1070010B5244C84B0002110
:1026B000200002F0C1F800281CD1214B1A68002A22
:1026C00016D0EFF3108172B610680028FCD0BFF36B
:1026D0005F8F01241B48596002781B68D2B20470D6
:1026E000BFF35F8F0020186081F31088002A0AD0A2
:1026F00004B010BD01200021404200F0F5FB200095
:1027000002F082F8F4E7FEF729FC0400FEF74AFE27
:10271000FA220023920012184B41802109068B42B5
:1027200002D30122084B5242012102910021019162
:10273000064920000091FEF715FCD9E7C01C0020D7
:10274000981C0020F01C0020FFFFFF7FC124001018
:10275000054B10B51868002804D0044B00221968F6
:1027600001F062F810BDC046F4170020F8170020F1
:10277000D02310B51B0684B01C68FEF7EFFBFEF7F4
:10278000EBFCA04202D0002004B010BD274B1B7808
:1027900001F06EFC2648FEF7E7F90120FEF7C6F9C6
:1027A000FF23244C244920701840FDF74DFF20786A
:1027B0000121FDF711FF0520FDF728FF002827D193
:1027C000FEF7CCFB0400FEF7EDFDFA220023920099
:1027D00012184B41802109068B4202D30122174B6C
:1027E00052420121029100210191154920000091DE
:1027F000FEF7B8FB0822040000211248FFF79EFCF8
:10280000002CC0DB10480121FFF7BEFD0120BBE713
:1028100000220E490520FDF741FFFDF7BFFE094BE1
:1028200001001800FEF7CAF9ECE7C046EC4B0010B7
:10283000C01C0020EF1C0020A9260010FFFFFF7F16
:10284000C1240010981C0020100F0020B12400109B
:1028500000487047A84A001000487047544A0010CA
:1028600010B5040017480378002B20D0002C06D1A7
:10287000154B16484380063BFF3B038010BD052CDB
:1028800019D8134BA400E0581249002304E0013387
:102890000A800231132B10D0C25C002AF7D1C0226B
:1028A0000133DBB25B00920008481343E5E71121D6
:1028B00000F01AF8DAE70020E0E7CA2303489B009B
:1028C000DBE7C046D81C00200904000040180020A7
:1028D0003C4A00104218002010B5024800F0D8F819
:1028E00010BDC046B01C002030B54B1E012900D1E0
:1028F000A7E0664A11780D112C0030349F2900D9C9
:10290000A2E00470012B00D1BEE00F211478214019
:102910000C003034092900D998E04470022B00D112
:10292000B2E054782511290030319F2C00D990E075
:102930008170032B00D1A7E00F2121400C0030341F
:10294000092900D987E0C470042B00D19CE0947859
:102950002511290030319F2C00D97FE00171052B12
:1029600000D191E00F2121400C003034092900D919
:1029700076E04471062B00D186E0D4782511290039
:1029800030319F2C00D96EE08171072B00D17BE0A4
:102990000F2121400C003034092966D8C471082B5E
:1029A00000D171E014792511290030319F2C5FD8B6
:1029B0000172092B68D00F2121400C003034092905
:1029C00058D844720A2B5FD0547925112900303130
:1029D0009F2C52D881720B2B56D00F2121400C0016
:1029E000303409294BD8C4720C2B4DD09479251161
:1029F000290030319F2C00D9073101730D2B43D0B2
:102A00000F2121400C003034092901D937310C0045
:102A100044730E2B38D0D1790C11220030329F290B
:102A200000D9073282730F2B2ED00F220A401100DB
:102A30003731092A01D830321100C173102B23D04D
:102A400010300023037030BD07345AE737310C00D3
:102A500063E707316CE737310C0074E707317DE736
:102A600037310C0085E707318EE737310C0095E7E9
:102A700007319DE737310C00A3E70731AAE737316B
:102A80000C00C4720C2BB1D1C018DAE7B01C0020C6
:102A900030B5002589B004000922002101A8009565
:102AA000FFF74CFB0922002105A80495FFF746FB20
:102AB0004B236A466846137004A90D2201F09CFE60
:102AC0001521082220006944FFF73EFB09B030BD04
:102AD00010B501210520FDF77FFD10BD10B50022C6
:102AE0000021024800F05AF910BDC0469418002099
:102AF0008022024B5202DA647047C0460020115017
:102B0000F0B5C64600B5060000F022F90C231B4DB7
:102B1000FF22AB6705201A49FDF7C0FD4023984608
:102B2000184C402200212000FFF708FB43460127F4
:102B3000238321210023144A6770A2601360635429
:102B40005F31618441462187053963540F4A10493A
:102B50006360E260A1620B606362E26201F094FE76
:102B600080239B052F64EB6490230A4A3000EA50CF
:102B7000FFF7BEFF80BCB846F0BDC0460000115054
:102B80009D04002074180020840010500001105093
:102B90008000105010D001000B785B0602D14B78FA
:102BA000052B00D070478A78014B1A60FAE7C046BF
:102BB00000001150F0B5C64600B5CC7888780A7987
:102BC0004B797F21A40701401B02C50913434F0025
:102BD000A20F1400324E7A195201B21890700120DF
:102BE0006840507000205B055B0DD0701383D47675
:102BF0008046CA00012D33D02A48844688016244A9
:102C00008446B4446046826040461060002933D058
:102C1000254AC90090466246414451603F223F33F5
:102C20009343022C00D15B0020487A1901685201BD
:102C3000B218D1601E4ACB18036051405A4080231D
:102C400088465B019A4228D84346A4061C43802349
:102C50007F197F01F61972681B062343136011E088
:102C600014488446880162448446B44460468262C3
:102C700040461060002909D100236D0175196B6071
:102C80000D4BEB60012080BCB846F0BD084AC9007E
:102C90009046624641445162C0E7FFF7FDF8D3E732
:102CA0007418002084001050040010507C1C002078
:102CB00000001050800010500001105010B501F0BD
:102CC000E3FD10BD10B57F200C0020404000E4095A
:102CD000110000191A00034B4001C01800F05EF803
:102CE000012010BD741800207F23180010B5084083
:102CF0000B420BD0C90980224000074B401840010D
:102D00000021C018120101F0C7FD10BD0223034AC3
:102D1000C9095B1A9366EEE7741800200020115071
:102D20007F22130010B50B400A4200D110BDC90923
:102D30005B005B1804485B01C018002300220349B4
:102D4000C37001F0A9FDF1E774180020FFF7FFFF41
:102D500080220D4B520410B51A600C4B0C491A60BE
:102D600010008B689843FBD10A4C9C220021200064
:102D7000FFF7E4F98022002152010748FFF7DEF94E
:102D80000923636710BDC04600E0004000F000402A
:102D900000C000400000115000001050002310B58A
:102DA000C3820133828283760161040001F034FD25
:102DB000002804D080219023074A8902D1502000A6
:102DC00001F012FD002802D00123237710BD20005E
:102DD00001F052FDFAE7C04600201150024B58782E
:102DE000431E9841C0B27047C8150020024B1878A6
:102DF0004007C00F7047C046C8150020034B187825
:102E0000FF38431E9841C0B27047C0464C0F0020A7
:102E1000F0B5C64600B52A4E05003378FF2B01D029
:102E200001203FE0532200212648FFF787F9264C76
:102E30002000FDF799FE254B1C60254C2000143C1A
:102E4000FDF7AEFE200001F0E1FB224B224F1C609B
:102E5000224B9846002B1DD03800FFF7FFFA204B7D
:102E600018603B7842460024002A15D01D4A90463F
:102E700042469C4219D3904701343B78E4B2A342C6
:102E8000F6D228003570FFF73BFE2800FFF720FE42
:102E9000012007E03B78E5E700F014FF3B78002BCA
:102EA000EFD0002080BCB846F0BD0D4A6300126828
:102EB0001B19DB00D318002BF3D01A68DBE7C046E0
:102EC0004C0F0020C8150020801500201C16002083
:102ED000440F002020160020E91C00205D24001073
:102EE000A0120020C53C0010F0B5DE4657464E4605
:102EF0004546E0B591B001F0C1F8002800D115E1D8
:102F0000CF4BD04E0193D04B0DAC0293CF4B9B4691
:102F100035686A69EFF3108172B61368002BFCD034
:102F2000BFF35F8FA9612800210001F0B1F96A6940
:102F3000AB69BFF35F8F0021116083F31088002815
:102F400000D1F3E06378082BE2D8019A9B00D358B4
:102F50009F466368002BDBD0A0689847D8E77F22A4
:102F60002179B94D0A405300C809EB181B18180005
:102F700001273030C578BD43C570C5780337BD43E0
:102F8000C570002A00D1EEE0B14ADB7C002A06D0F1
:102F9000B04A1278934200D247E19B1ADBB2002B71
:102FA00000D0C3E0AC4DA36862792078A847AFE7B2
:102FB0000122A54D01212B78042013432B703323CC
:102FC000EA5C8A43EA54EA5C8243EA540133EA5CED
:102FD0008A43EA54EA5C8243EA54237800209A4602
:102FE00000F024FD602223791A40602A0DD0402A87
:102FF00000D1BEE0DB06DB0E012B00D13CE1022B51
:1030000000D1D3E0002B00D1C2E020780021FFF7EF
:103010006BFE80212078FFF767FE79E7029B1B7823
:10302000DB0700D474E78D4B002B00D170E700E084
:1030300000BF6DE7844D2B78DB0700D468E7884B31
:10304000002B00D164E728780007C00F00E000BF24
:103050005EE723787F4F7E4A984600253B78002A1A
:1030600049D0B1463E005F463A009D4265D3404696
:10307000904701353378EDB2AB42F5D24E46BB46B0
:10308000714D532200212800FFF758F81022FF212C
:10309000E81CFFF753F828002022FF211330FFF728
:1030A0004DF82EE023786B4F694A984600253B780F
:1030B000002A2FD0B1463E005F463A00AB4247D8C7
:1030C0004046904701353378EDB2AB42F5D24E46DB
:1030D000BB465D4D532200212800FFF72FF8102238
:1030E000FF21E81CFFF72AF828002022FF211330D7
:1030F000FFF724F815E0404600F022FE3B78002B55
:10310000BED000F089FC574B002B00D100E700E057
:1031100000BFFDE6404600F013FE3B78002BD8D000
:10312000494D00F079FC2379AB70F1E611B0F0BCA9
:10313000BB46B246A946A046F0BD4B4A6B0012689A
:103140005B19DB00D318002B00D1ADE15A688EE784
:10315000454A6B0012685B19DB00D318002B00D1C5
:10316000A5E15A68ACE7A3686279207800F072FCA8
:10317000CEE63E48002800D147E700F057FC012189
:1031800050460EAA00E000BF002800D0C0E63CE791
:10319000202A00D1A5E0002A00D036E76379092B68
:1031A00000D932E7324A9B00D3589F467023217AD8
:1031B0000B4200D029E70F330B405B00CF09E81822
:1031C000C019C07C039384462148002808D02148B8
:1031D0000078844500D2A7E06346181AC3B29C4623
:1031E0006046002800D099E0002A00D058E1214B29
:1031F000984663791A00994602239A43012A00D11E
:1032000058E14B46002B00D0FFE6039B0CAAEB18BD
:10321000DB193033DB7802329B07DB0F138050461B
:1032200002230EA900F0A2FB72E60F4A58001268B2
:10323000C318DB00D318002B00D177E71D69B2E675
:10324000244B001020160020C8150020413D00101E
:103250005D240010E91C0020353F00100000000034
:103260000000000000000000A0120020000000008C
:10327000484B0010B04B0010237A0F2B00D9C4E646
:10328000B84AEB18DB78002A05D0B74A1278934287
:1032900065D39B1ADBB2002B00D0B6E6B348B44D21
:1032A00000F0C4FB01215046EB680EAA98470028A5
:1032B00000D02DE66022150023791D401A4200D06F
:1032C000A3E663790A3B012B00D99EE600F0AEFB32
:1032D00063790A2B00D12FE150460EA900F030FB94
:1032E00016E6237A0F2B00D98FE69E4AEB18DB787F
:1032F000002A06D09C4A1278934200D2FDE09B1A25
:10330000DBB2002B00D080E69848994D00F08EFB90
:1033100001215046EB680EAA984735E7002A00D0F5
:1033200073E60023984664E763465B009846C4440E
:103330006346DB009C468F48006860448046002A54
:1033400000D156E7002800D15FE6C06800F06EFBB0
:10335000434601215046DB680EAA984714E7854A88
:1033600059001568CB18DB00ED18002D00D14CE694
:10337000E86895E7E388012B00D046E608222B7821
:10338000504693430EA92B7000F0DAFAC0E50220F4
:1033900029780CAB9A1C8B068908DB0F01400B4384
:1033A0003CE7A37999466B78994507D06B78002B59
:1033B00000D049E14B46002B00D0E7E04B46504699
:1033C0000EA96B7000F0BCFAA2E56B780CAA023271
:1033D0001370504601230EA900F0C8FA98E5E3885F
:1033E0001A0AD8B20F2A00D90FE663499300CB58C6
:1033F0009F460EA800F020FB5046A179FFF76EFB18
:1034000002222B7813432B7082E5E388012B00D036
:10341000FBE508222B78504613430EA92B7000F0D1
:103420008FFA75E5554B002B00D1EEE500E000BFAB
:10343000021E00D1E9E5D37891781B020B43504678
:103440000EA900F093FA9FE64D4B002B00D1DCE56E
:1034500000E000BF021E00D1D7E5504613780EA948
:1034600000F084FA90E62189FFF7FAF9021EF4D100
:10347000CBE5022A00D15EE1424B002B00D1C4E52E
:1034800000E000BF0200002A00D1BEE5D3E7FFF74D
:10349000DFF9122302000EA9504600F067FA73E626
:1034A000334B3248984651E74E46BB4629E64E46D6
:1034B000BB4635E6E288002A09D14B46012B27D0CE
:1034C000039BEB18DF193037FB789B073DD543464C
:1034D000002B00D11CE5D86800F0A8FA4346012172
:1034E000DB680EAA50469847002000F09FFA34236C
:1034F000EB5CDB0700D50BE5EEE61E4A59001568CC
:10350000CB18DB00ED18002D00D17EE5E868FDE664
:10351000039BEB18DF193037FB789B07D7D51A4B85
:103520001878FFF7FDFB0222FB7893434A46FB70B5
:10353000FB789343FB70CAE70CAB9A1C50460123FF
:103540000EA9157000F012FAE2E40F4B1878FFF79D
:10355000CBFB0222FB7813430122FB70FB78134361
:10356000FB70B4E75D240010E91C0020513E001000
:10357000B04B0010A0120020704B001000000000A3
:1035800000000000000000004C0F0020581EC0B2D8
:10359000FFF762F9002800D137E543780793022B43
:1035A00000D032E50121C37907009A115B110A406E
:1035B0000B4052011B0113432A782F318A431343D6
:1035C0002B70C37882781B021343C3180693664B93
:1035D000A8460593654B09370A934B46B1460B93B2
:1035E000069BBB4200D8AAE001227B7803920B2BFA
:1035F00003D1FB7803933B78FF187B78042B21D110
:103600000025069BDB1B9BB20493059B1A780A9B43
:10361000AB424DD0564B0893564B0993089B099EDD
:10362000AA427FD839005046049A98478446082811
:1036300002D9049A824247D2059B01351A78EDB22D
:10364000AA42EBD24E46E0E45046FFF737FBAB7898
:10365000454F464A039300213B78002A1FD0464A33
:1036600004922A000D009046049A9D4250D3504681
:10367000904701353B78EDB2AB42F5D24546532237
:1036800000212800FEF75AFD1022FF213B48FEF7DB
:1036900055FD2022FF213A48FEF750FD05E0504637
:1036A00000F04EFB3B78002BE9D0039BAB7081E62A
:1036B000049E39003200504600F058FB844608282A
:1036C000C0D98642BED32B4E039B012B44D000228F
:1036D000404609E0BB78D318DBB2C318D978FF297C
:1036E000B0D10132DD70D2B2039B9A42F2D166466C
:1036F0002B00390080463200214800F045FDB446D9
:10370000059B67441B78AB4200D369E74E467CE4D7
:103710001C4A6B0012685B19DB00D318002B19D010
:103720005A68A4E71823174A6B431668F618002E48
:1037300088D0B36876E7FFF78FF80200A3E60B9B0B
:103740004E469946104B4546002B00D136E600E028
:1037500000BF33E64546A8E7054BB2689A42B6D1AA
:10376000079B0393B3E7C046E91C00205D240010CB
:103770006D3D0010B04B0010413D0010CB150020F6
:10378000DB150020A012002000000000F8B557460D
:103790004E46DE4645460C00E0B516001F00002AE6
:1037A0003CD01F4B00259A46702399461D4B9B46E3
:1037B00017E05B462000997800F0A8FC00281FD095
:1037C00021004046FFF7F6F9002819D0A378DA095E
:1037D000012A1CD00A9A013513702378E418B542E7
:1037E0001CDA6378052B0BD1E3789B079B0FBB4258
:1037F00006D153464A461B789846A3781A42D8D039
:103800000020F0BCBB46B246A946A046F8BD0B9AC4
:10381000013513702378E418B542E2DB0120F0E7AC
:103820004C0F0020C8150020802310B51B0184B068
:1038300001930E4B02901C6803916269EFF31083B1
:1038400072B611680029FCD0BFF35F8FA36120001E
:1038500001A900F0DFFD6269A369BFF35F8F00215A
:10386000116083F3108804B010BDC04620160020FC
:10387000702270B5094B0C001D788B781A4201D06C
:10388000002070BD064B2000997800F03FFC002816
:10389000F6D021002800FFF78DF9F2E74C0F002049
:1038A000C81500200B007F2010B51840DB0933330A
:1038B0004000044AC018044B1168C01800F0E2FB35
:1038C00010BDC0461C160020C81500200B007F202C
:1038D00010B51840DB0933334000044AC018044BCC
:1038E0001168C01800F0F6FB10BDC0461C16002081
:1038F000C815002070B57F240F480C4064000419DF
:10390000CD0964193034E078C00701D5002070BDBE
:103910000126E578094835430078E570FFF7D2F9CC
:103920000028F4D10122E3789343E370E378033273
:103930009343E370EAE7C046C81500204C0F00200F
:1039400070B5094C0600082220000D00FEF7FCFBB4
:1039500000238021E360A3602B783000994300228C
:103960000023FFF7C7FF70BD6C150020F8B5CE46E9
:1039700047469046264E80B58146082230000D000D
:103980001F00FEF7E1FB4346B3600023F381EC79AF
:10399000AB7924021C43231CBC4200D93B1C9FB2C0
:1039A000B381002C0ED0002F18D04346002B2CD012
:1039B0003B1C402F1BD89FB233787F2B1CD8002193
:1039C000144A0FE080212B780022994348460023B7
:1039D000FFF790FFC0BCB946B046F8BD7F23002278
:1039E000317899433B004846FFF784FFF2E74023D4
:1039F0009FB233787F2BE2D9064C3A004146200033
:103A0000FEF7A2FB80212200ECE70020E2E7C0469F
:103A10006C1500208815002010B5142200210248E2
:103A2000FEF78CFB10BDC0466C150020014B1861E1
:103A30007047C0466C15002010B5054C01000822E7
:103A40002000FEF781FB0023A360E36010BDC046A9
:103A50006C15002070B5394C1D0023780600DA097A
:103A6000C9098A4213D00020002D00D070BD344B0C
:103A7000002B03D021003000FFF78EF82369002BC4
:103A800003D022000321300098470120EEE77F2B6E
:103A900006D8A068002834D02A002A49FEF754FB33
:103AA000E289A1685219E38892B24919E281A160C2
:103AB000934214D03F2D12D9A389981A051C80B2C5
:103AC00040282AD82078ADB27F2828D800219A42F1
:103AD00032D01C4A2B003000FFF70CFFC6E72369E9
:103AE000002B05D0220002213000984700280AD080
:103AF000802123780022994330000023FFF7FAFE4B
:103B0000B4E70020B2E700213000FFF7EDF8300005
:103B10008021FFF7E9F80120A8E74025D2E79A4283
:103B200007D0084C2A002000FEF70EFB802122005F
:103B3000D0E780210022CDE70022CBE76C150020E2
:103B4000992B00108815002010B50400FFF746F9E6
:103B5000002801D1002010BDFFF748F90028F9D155
:103B6000B22292006243034B01309B181B7918402C
:103B7000F1E7C046A4120020B2239B00434310B5D6
:103B80000248181800F050FB10BDC046B4120020C7
:103B9000F0B5B225AD0045432C00C646174F103492
:103BA000E41900B5200092B200F0C0FB060020002E
:103BB00000F058FB3F2803D8300080BCB846F0BD69
:103BC0007B190020D9789846FFF76CFE0028F3D0C7
:103BD000200000F047FB3F280AD992239B00EA18F7
:103BE0004346D219D97800204023FFF783FEE3E74C
:103BF00043460020D978FFF769FEDDE7A4120020D4
:103C0000F8B50400FFF7EAF8002801D10020F8BD5C
:103C1000FFF7ECF80028F9D1B2239B005C432500A4
:103C2000144E2435AD19280000F0FEFA0028EDD01E
:103C300037190020B978FFF735FE0028E6D0A22317
:103C40009B009C466444A41921002800402200F0F7
:103C50006DFBB978051E08D0030022000020FFF795
:103C600049FE0028D2D02800D1E70020FFF72EFE21
:103C7000CCE7C046A412002070B5B224A40044438F
:103C8000094B0500E418200092B200F007FC060082
:103C9000200000F0C9FA3F2801D8300070BD28008C
:103CA000FFF7AEFFF9E7C046C8120020B2239B0021
:103CB000434310B50248181800F0D4FA10BDC046AE
:103CC000C8120020B222F0B51B4C83B000212000A6
:103CD0009200FEF733FAFF236371184B802600250C
:103CE000E38001270823210020007600237332009F
:103CF000278138310095073B103000F05FFA210032
:103D0000200039313200FF3101230097243000F0C8
:103D100055FA8E239B00E6183000FCF725FF902310
:103D20009B002662E6183000E561FCF71DFF266364
:103D3000656303B0F0BDC046A412002000C2FFFFBF
:103D400010B5094C052200212000FEF7F7F92000EC
:103D50002434103000F05AFC200000F057FC012100
:103D6000200000F073FC10BDA4120020F0B54B79C8
:103D7000060083B0022B02D18B79022B03D00025E1
:103D8000280003B0F0BD2F4FBB78002BF7D18B7804
:103D900009253B700C780C196378242B0BD1082A69
:103DA00002D81FE0AA421DD32378E4185D19637876
:103DB000ADB2242BF6D0052B31D0042B12D1637970
:103DC0000A2B0FD1204B2778019301330093022255
:103DD00002233000E119FFF7D9FC0028CFD00E35BF
:103DE000ED19ADB2194C200000F03CFA3F28C7D9BC
:103DF0002600103E0020F178FFF754FD0028BFD0C8
:103E0000200000F02FFA3F2817D98E239B00E218DC
:103E1000F93BF178FF3B0020FFF76CFDB0E7210094
:103E20003000FFF725FD0028A9D0A3787B70237808
:103E30005D19E4186378ADB2BFE7F1780020FFF7B1
:103E400045FD9DE7A4120020A6120020B412002018
:103E5000F8B5602314001278050013400020202BD1
:103E600012D12F4A6379277916781B023B439E4271
:103E70000AD16378222B27D007D8202B17D0212BEB
:103E800002D101293DD00120F8BD232BFCD101290D
:103E90003FD00329F7D1234B002BF4D0E178A3784E
:103EA00009020020194300E000BF0120ECE70129CE
:103EB00027D00329E7D11C4B002BE4D00020911D13
:103EC000FEF7D2FA0120DFE7012922D00329DAD157
:103ED00001252E00A378E478023924021C431471D2
:103EE000264024321000714000F0B0FB0F4B002B35
:103EF000C9D06208002031002A4000E000BF012044
:103F0000C2E7072321002800094AFFF72FFD0120FF
:103F1000BAE721002800FFF713FD0120B4E7C046EF
:103F2000A41200200000000069240010000000001E
:103F3000AA120020F8B545465746DE464E46E0B583
:103F4000464D1F00EA7880460C00AB788A4246D086
:103F500000208B421AD0F0BCBB46B246A946A04610
:103F6000F8BD3F4B002B04D0484600F073F9002801
:103F70006CD0484600F076F93F2807D94E46103EEF
:103F80000020F178FFF78EFC002851D1AB78A342D6
:103F900001D00120DFE7334B002B02D0002000E0EE
:103FA00000BF0020FFF72CFE0028F2D12E4C20008D
:103FB00000F03AF90028ECD1002FEAD0BF06E8D192
:103FC000243C4046A178FFF76DFC0028E1D0002397
:103FD00000224046A178FFF78DFC0120BBE7922329
:103FE0009B00EE1810239B46AB4431005846BAB2F2
:103FF00000F054FA1D4BD946002BB2D06B79FF2B41
:10400000AFD0002FADD0F219924603E00136B24591
:10401000A7D06B7932789A42F8D1484600F01AF965
:104020000028F3D14B46103B597900E000BFEDE783
:10403000484600F017F93F280BD98E229200402302
:10404000F1784A440020FFF755FC9FE7FEF780FB1C
:104050008FE7F1780020FFF739FC97E7A4120020E2
:104060005127001000000000C812002000000000CE
:1040700010B50020FEF7CCFE10BDC04610B5FEF70F
:10408000BDFE10BD037870B5DB0704000E00DD0F28
:10409000002B17D103785B0701D5280070BD0121E3
:1040A0003000494200F0D0FB2378DB07DD0F002B06
:1040B0000AD123785B0708D404222378012513430F
:1040C000237002E00025E8E70025300000F09CFBAB
:1040D000E3E7C04670B50C0001210600494220000C
:1040E00000F0B2FB33785B07DD0F002B04DB200010
:1040F00000F08AFB280070BD3378DB0704D404226B
:10410000337893433370F2E70025F0E7437902797F
:104110001B0213435B055A0DC3789B079B0F022BB1
:1041200005D0032B15D00020012B08D070470229A1
:104130001ED00020402393424041C0B2F6E702392E
:104140004B4259410D4B9C46614491424041C0B2A3
:10415000ECE702394B1E9941094B49421940802333
:10416000DB009C460020614491424041C0B2DDE743
:10417000044BD01843425841C0B2D7E7FF030000B8
:1041800040FCFFFF00FEFFFF8A1870B5914207D286
:104190007F264C78052C04D00C7809198A42F8D86F
:1041A00070BD34008D782C4064000419ED0963550E
:1041B0000C7809198A42ECD8F2E7C046F0B5C64639
:1041C00000B5040006A805788020884617001E0068
:1041D0000002824226D8E068002803D0012149422B
:1041E00000F032FB2069002803D00121494200F091
:1041F0002BFB4346236073045B0CED031D4300233C
:10420000E0686381A780E5802381002801D000F069
:10421000FBFA2069002801D000F0F6FA012080BCEA
:10422000B846F0BD0020FAE710B5048941898288BC
:10423000A3B288B28C4207D31B1A9BB2101C9A42BD
:1042400000D9181C80B210BD5100091A5B189BB22E
:10425000F4E7C04603894089181A43425841C0B266
:104260007047C04610B5048941898288A3B288B2DC
:104270008C4207D31B1A9BB200209A4201D9D21A52
:1042800090B210BD5100091A5B189BB2F4E7C0460A
:1042900070B5040000690E00002803D001214942D6
:1042A00000F0D2FA25896089A288A9B283B285423A
:1042B0002BD3CD1AADB2002D2DD0AA4208D29142F7
:1042C0002FD3891A8BB263819A4203D89B1A9BB26F
:1042D0009A42FBD9E28821685204520C53433000C1
:1042E000C918FDF731FF63890125591C89B2A288DD
:1042F0008B4212D95200891A89B220696181002843
:1043000001D000F081FA280070BD5500ED1A4D195A
:10431000ADB2002DD1D1618989B252009142ECDB5E
:10432000E9E789188BB26381CEE7C046F0B546460F
:104330004F46D646C0B5060000698946904600281B
:1043400003D00121494200F07FFA31897289B58892
:104350008BB294B2914254D31F1BBFB2002F4AD0EC
:10436000BD4205D2AB4251D25B199CB22F00748181
:104370004346B8453DD89FB2A54203D8641BA4B2BA
:10438000A542FBD9F28831685204520C9046624330
:104390002B1B9BB2891842469F4225D953439BB29F
:1043A0001A0048469A46FDF7CFFE434648467D1B15
:1043B00064195C4331685044A2B2FDF7C5FE7189AF
:1043C000B588CB199BB26A00994216D99B1A9BB249
:1043D00030697381002801D000F016FA3800E0BC83
:1043E000BA46B146A846F0BD48467A43FDF7ACFE52
:1043F000E5E73B1CBFE773899BB26A009342E7DBAA
:10440000E4E76F003F1BDF19BFB2A7E75B1B9CB25D
:10441000ACE7C046F8B50400C0680E00002803D021
:104420000121494200F010FA258920896189A2887A
:10443000ADB283B28FB2884228D3DB1B9BB29A42C3
:1044400009D8E779FF0906D1E068002801D000F01B
:10445000DBF93800F8BD2B00954203D39B1A9BB2C1
:104460009342FBD2E28820685204520C534331003D
:10447000C018FDF769FEA2886B1C9BB252009D42DA
:1044800009D99B1A9BB201272381DDE75100C91B83
:104490005B189BB2D3E79342F5DBF2E7F0B54546F4
:1044A000DE4657464E46E0B588460500140083B008
:1044B000002A6FD0C068002803D00121494200F0D3
:1044C000C3F92E89EB796A89B6B292B2DB0940D181
:1044D000AB88964267D259008A1AB21892B2002766
:1044E000934230D99A1A171C92B2A24200D9271CC3
:1044F000EA88BFB25204520C9146F21992B2924627
:10450000FA1A92B293463400B34203D8E41AA4B222
:104510009C42FBD24A46624328681B1B9BB2801810
:104520004A46BB4253D341467A43FDF70DFEAB8862
:104530005B00B24501D39A4503DB5246D31A9BB2C6
:104540009A4653462B81E868002824D000F05CF995
:1045500021E0AF88BC4229D296424AD3B31A9BB21B
:1045600079001B198B4208DBD3199BB21E1BB6B214
:104570009A46B24242D9761AB6B2EB885B045B0C1B
:104580009946A3199BB29A46E31B9BB29B463B00FC
:104590002700B8E70027380003B0F0BCBB46B2469E
:1045A000A946A046F0BDB21A92B298E7002FCAD031
:1045B000EB88E41B5B045B0C5C4399461600D31943
:1045C00000229BB29A4693463B00A0449BE753438C
:1045D00099B20A0001915C444146FDF7B5FD220005
:1045E0004B465A430199286892B24144FDF7ACFD0D
:1045F0009DE779008B1AF3189BB2B2E7B142BADD9E
:10460000EB885B045B0C9946BEE7C04610B504001E
:10461000C068002803D00121494200F015F9206943
:10462000002803D00121494200F00EF90023E06880
:1046300063812381002801D000F0E6F8206900287A
:1046400001D000F0E1F8012010BDC04670B50400B3
:10465000C0680D00002803D00121494200F0F4F8A1
:104660002069002803D00121494200F0EDF87F21A4
:10467000E379ED011940E0682943E171002801D098
:1046800000F0C2F82069002801D000F0BDF8012038
:1046900070BDC046F0B54F468146364BD6464B44BA
:1046A0005A42534180229202944646465B421B0C7A
:1046B000314A1B046344C0B51360304A0D003049D1
:1046C000136018008A689043FBD10620FDF78AFA30
:1046D00080468020400002218246EF0D6E02AB0D25
:1046E000AA0203E0C44509D851453FD00C009446C6
:1046F0001800023192197B410028F3D0802627024E
:104700003F1B7600B246013E002E31D039004046B4
:10471000FDF722FC3F1B8542F4D25146614336022D
:104720004B461C611B684A465E40FF231B021E402D
:1047300080235B0113431E60106807225040C8327B
:1047400002401A604B468022032092012433134317
:1047500018604B4604331A43022340461360FDF7AA
:10476000FBFBE0BCBA46B146A846F0BD0C00C5E76D
:104770002100D5E70040FCBF00E0004000F0004011
:1047800000C0004010B583070AD00300032102E0F7
:1047900001330B4205D01A78002AF9D1181A10BD3E
:1047A000030019680C4A0D4C8A188A4322420FD123
:1047B0005968094A04338A188A43224208D1596841
:1047C000054A04338A188A432242F1D000E00133BB
:1047D0001A78002AFBD1E1E7FFFEFEFE8080808090
:1047E000F8B5C0460000000001B40248844601BC90
:1047F000604700BFD509002001B40248844601BCCF
:10480000604700BFC902002001B40248844601BCD1
:10481000604700BF2D02002001B40248844601BC5D
:10482000604700BFAD09002001B40248844601BCC6
:10483000604700BFC10D002001B40248844601BC9E
:10484000604700BFC100002001B40248844601BC9B
:10485000604700BF9D01002001B40248844601BCAE
:10486000604700BF750D002001B40248844601BCBA
:10487000604700BF0101002001B40248844601BC2A
:10488000604700BF490B002001B40248844601BCC8
:10489000604700BF8903002001B40248844601BC80
:0848A000604700BFF10A00208F
:1048A8005374617274656420756E6D6F64756C61A4
:1048B8007465642063617272696572206174203264
:1048C800343530204D487A2E2E2E000008005250E4
:1048D8008A09A50453504920435300000900525047
:1048E80020000000DC4800104E6F207370696E6C69
:1048F8006F636B732061726520617661696C6162B8
:104908006C6500004E6F20757365722049525173B3
:104918002061726520617661696C61626C65000076
:10492800486172647761726520616C61726D2025DF
:104938006420616C726561647920636C61696D657E
:10494800640000000A2A2A2A2050414E4943202A9E
:104958002A2A0A000A000000486172642061737301
:104968006572740052656C6561736500626F6F747F
:10497800325F77323571303830000000312E352EF5
:10498800300000007069636F00000000636172729C
:104998006965725F43433235303000004D617220E3
:1049A800323020323032330006005250D3F0754294
:1049B8006C49001006005250E182887F744900104B
:1049C80006005250BBFF3CB68C4900100D0A00008F
:1049D800C1230010C5230010D1230010FD230010AF
:1049E800F9230010000000005553422073746469D5
:1049F8006E202F207374646F757400000600525087
:104A080053B4F4A1F0490010526173706265727278
:104A180079205069000000005069636F00000000B1
:104A2800426F61726420434443000000526573651D
:104A38007400000000000000104A0010204A001016
:104A4800D81C0020284A0010344A001009025400DB
:104A5800030100807D080B00020202000009040027
:104A680000010202000405240020010524010001C0
:104A7800042402020524060001070581030800102A
:104A880009040100020A00000007050202400000B4
:104A9800070582024000000904020000FF0001052A
:104AA80012010002EF0201408A2E0A0000010102F1
:104AB80003010000556E68616E646C65642049529C
:104AC8005120307825780A006570202564202573E8
:104AD8002077617320616C72656164792061766109
:104AE800696C61626C65000043616E277420636FB6
:104AF8006E74696E75652078666572206F6E2069C0
:104B08006E6163746976652065702025642025735D
:104B1800000000006F757400696E0000102F00100F
:104B2800A430001052300010102F00103430001044
:104B38001C300010B02F00105E2F0010522F0010F4
:104B48008E330010743300100A3000100A3400103D
:104B58000A300010F2330010DE3300100A30001063
:104B6800CA330010A23300100A3000108E3400102F
:104B780072340010663400100A3000100A30001039
:104B880048340010723400100A3000100A30001047
:104B98000A3000100A3000100A3000100A300010E5
:104BA8000A30001024340010C53C0010413D0010AC
:104BB8006D3D0010513E0010353F00100000000010
:104BC800E4480010D4480010B0490010BC49001057
:104BD80088020010C849001094020010A0020010BA
:084BE800AC020010044A0010A9
:104BF00003000068EFF3108C72B60268002AFCD044
:104C0000BFF35F8F04229A56002A04DB002900D0EC
:104C10000A60002004E0D0220120120612681A71F6
:104C20001B68BFF35F8F00221A608CF310887047F7
:104C3000F0B5C646150000B504001E000268EFF38B
:104C4000108172B61368002BFCD0BFF35F8F042372
:104C5000E356002B2DDB2268BFF35F8F002010602E
:104C600081F31088D0221206127852B290469A42EE
:104C700003D1002080BCB846F0BD00270BE02368BC
:104C8000BFF35F8F1F6081F310882800310000F0B0
:104C900063FE0028EDD12268EFF3108172B613682D
:104CA000002BFCD0BFF35F8F23797F2BE7D94346DE
:104CB00002E0D0231B061B6823712368BFF35F8FBC
:104CC00000221A6081F310880120D3E7F0B5C646B0
:104CD00000B50D00040000F02FFEFA2206000F00C0
:104CE000002328000021920000F006FE80233618E1
:104CF0004F411B069F4202D30126174F7642D02315
:104D00001B061B68002598460BE02368BFF35F8FE6
:104D10001D6081F310883000390000F01DFE00286E
:104D200018D12268EFF3108172B61368002BFCD003
:104D3000BFF35F8F23797F2BE7D943462371236825
:104D4000BFF35F8F00221A6081F31088012080BCBE
:104D5000B846F0BD0020FAE7FFFFFF7F0268EFF3DF
:104D6000108172B61368002BFCD0BFF35F8FFF2356
:104D700003710368BFF35F8F00221A6081F310880C
:104D800040BF704710B5084C2378002B0AD1802310
:104D9000064807495B051A68C25004338B42FAD1B2
:104DA0000123237010BDC046EB1C0020F416001038
:104DB0000001001010B5014B984710BDF5160020FA
:104DC000034B1A68C0239B009343024A1360704749
:104DD0000C8001400C900140054B1A6880239B0019
:104DE0005340C02292001340024A13607047C046ED
:104DF0000C8001400C9001401423F0B5D6464F467C
:104E000046469A46814618880433C0B598460E0037
:104E10001B882649140098475346070018884346C4
:104E200023491B8898475346050018884346214963
:104E30001B8898478046FFF7A5FFB847A847FFF7AC
:104E4000CBFF221E20D0C02108270220490511E0F7
:104E5000002C14D0131B0D2B20D9002D0AD02300B9
:104E6000002A05D00B6E013A33701300013623433C
:104E7000002B09D03D008B6A1D401842E8D1002D5F
:104E8000EDD123001343F5D1FFF79AFFC047FFF799
:104E900091FFE0BCBA46B146A846F0BD4B461B7830
:104EA000013C0B6601239C46E144E8E749460000CB
:104EB00045580000464300000022154B10B59A608B
:104EC000DA601A615A619A61DA611A625A629A6208
:104ED000DA621A635A639A63DA631A645A649A64E8
:104EE000DA641A655A659A65DA651A665A669A66C8
:104EF000DA661A675A679A67DA67F0329200002119
:104F0000044800F011FD044B044A1A6010BDC0466D
:104F100000001050B41800207C1C002080011050AC
:104F2000F0B55746DE464E464546E0B5244B87B0C1
:104F30009F6D002F23D0234B0024994601239846D0
:104F4000214B01269A4604E001347600E4B2202C7D
:104F500015D03E42F8D04B469E65434665086D002D
:104F6000A343ED186D015544280000F0BBFB002859
:104F70000CD10134B743E4B27600002FE7D107B07B
:104F8000F0BCBB46B246A946A046F0BDAB7802A82D
:104F90009B46EB8A062200210630019300F0C4FCF8
:104FA000E023594602AADB009380019B117203A8FB
:104FB0000121059300F0BEFB280000F02BFBD8E791
:104FC0000000115000301150741800209823C84A76
:104FD000F0B5D55880232C009B02102685B01C40CC
:104FE0001D427AD0C34BC44C9A6AC44B00261A6047
:104FF0003B23E35C022B00D1DFE07B23E35C022B4D
:1050000000D1B9E1BB23E35C022B00D1A9E1FB2372
:10501000E35C022B00D199E13C23FF33E35C022BDC
:1050200000D158E17C23FF33E35C022B00D145E142
:10503000BC23FF33E35C022B00D132E1FC23FF33BE
:10504000E35C022B00D11FE1AD4BE35C022B00D1EE
:105050000EE1AC4BE35C022B00D1FDE0AA4BE35C1C
:10506000022B00D1ECE0A94BE35C022B00D1DBE08A
:10507000A74BE35C022B00D1CAE0A64BE35C022BFA
:1050800000D1ABE0A44BE35C022B00D17FE1A34B4A
:10509000E35C022B00D196E1002E08D1A04B1B78D7
:1050A000002B04D180219F4A90338902D150904B2C
:1050B0000A229C6C6B460021981D00F035FCC02331
:1050C000640501AE9B00640D338030000294012121
:1050D000802400F02FFB944EA402EB0669D48023B9
:1050E0005B021D4214D0012223211C43824B5A54DF
:1050F000DA70C0238D4ADB00019302AB03CA03C3FD
:10510000012101A800F016FB8022864B92021A654D
:1051100080235B011D4233D18023DB011D421CD162
:1051200080231B021D4204D1AC4200D0C8E105B06F
:10513000F0BD1C436B460A220021981D00F0F4FBD1
:10514000A02301AEDB0033800121300000F0F2FA31
:105150008022744B12011A65E6E71C436B460A2253
:105160000021981D00F0E0FB802301AEDB003380BE
:105170000121300000F0DEFA10226A4B1A65CFE7F9
:1051800000221C435A4B01AE1A60FFF795FE6B4696
:105190000A220021981D00F0C7FB80235B003380AA
:1051A0000121300000F0C6FA80225E4B12031A651E
:1051B000B2E7FFF7B5FE340091E73833E65C002E26
:1051C00000D11AE70233E25C002A00D115E7200083
:1051D00000222030E25400F04FFA0EE7544BE75C17
:1051E000002F00D14EE70233E25C002A00D060E1DC
:1051F000494BE35C022B00D1DBE0484BE35C022B24
:1052000000D054E74B4BE35C002B00D0E0E04EE7CE
:10521000494BE75C002F00D12FE70233E25C002A04
:1052200000D03EE13E0028E7444BE75C002F00D170
:105230001EE70233E25C002A00D02AE13E0017E7B5
:105240003F4BE75C002F00D10DE70233E25C002A00
:1052500000D016E13E0006E73A4BE75C002F00D194
:10526000FCE60233E25C002A00D002E13E00F5E6F3
:10527000354BE75C002F00D1EBE60233E25C002AFD
:1052800000D0EEE03E00E4E6F933FF33E75C002FA8
:1052900000D1D9E60233E25C002A00D0D8E03E001B
:1052A000D2E6B933FF33E75C002F00D1C6E6023304
:1052B000E25C002A00D0C2E03E00BFE67933FF3353
:1052C000E75C002F00D1B3E60233E25C002A00D095
:1052D000ACE03E00ACE63933FF33E75C002F00D191
:1052E000A0E60233E25C002A00D096E03E0099E698
:1052F0000000115000400540741800206C18002078
:105300003B0200007B020000BB020000FB02000029
:105310003B0300007B030000BB030000FB03000015
:10532000EA1C002000301150100002000000105054
:105330007A030000FA0300003A030000FA020000BA
:10534000BA0200007A0200003A020000F833E75C7B
:10535000002F00D160E60233E25C002A55D13E0006
:105360005AE6B833E75C002F00D150E60233E25C26
:10537000002A42D13E004AE67833E75C002F00D194
:1053800040E60233E25C002A2FD13E003AE64F4B62
:10539000E35C002B00D17AE6EF239B00E25C002A5D
:1053A00000D12AE70022E2541C3BE01800F064F927
:1053B00023E7464BE35C002BEED1454BE35C022B2D
:1053C00000D074E63E00434BE35C002B00D163E663
:1053D000FF239B00E25C002A00D168E60022E25431
:1053E0001C3BE01800F048F961E620000022603024
:1053F000E2543E0000F040F904E620000022A03014
:10540000E2543E0000F038F901E620000022E030CE
:10541000E2543E0000F030F9FEE520000022213089
:10542000FF30E2543E0000F027F9FBE520000022A7
:105430006130FF30E2543E0000F01EF9F8E5200034
:105440000022A130FF30E2543E0000F015F9F5E5EE
:1054500020000022E130FF30E2543E0000F00CF961
:10546000F2E50022E2541C3BE01800F005F93E0092
:10547000EFE50022E2541C3BE01800F0FDF83E008E
:10548000ECE50022E2541C3BE01800F0F5F83E0089
:10549000E9E50022E2541C3BE01800F0EDF83E0084
:1054A000E6E50022E2541C3BE01800F0E5F83E007F
:1054B000E3E50022E2541C3BE01800F0DDF897E63B
:1054C00021000548694000F027FAC046BA030000F1
:1054D000FB030000FA030000BC4A0010084A030066
:1054E000126C0020920703D49A78D209012A00D0C6
:1054F0007047D87E023843425841C0B2F8E7C046F0
:105500000000115010B5FFF7E9FF00280CD0074943
:10551000074B8C46074A9B6A126863449B1A00201B
:10552000C6229A424041C0B210BDC046E0FCFFFF17
:10553000004005406C180020F8B5028B838A0400F7
:105540000F00161C9A4200D91E1CE278802115001B
:10555000681E8541B6B2C90031436D030D43012178
:105560004A409B1BE27062789BB2A382002A09D05A
:10557000002B02D18023DB011D43002F00D02D041E
:105580002800F8BDE068BB01C0183200216900F0B6
:10559000BBF923699B19236180231B021D43A38A46
:1055A000E6E7C046836870B504001D68002900D096
:1055B0002D0C6378AD05AD0D002B09D1E38AEB18F6
:1055C000E382238BAB4201D90023A382280070BD64
:1055D000E368890159182A00206900F095F9E38AE7
:1055E000EB18E38223695B192361EAE710B5040035
:1055F000836800211B68FFF7D5FF63681B685B00A9
:1056000002D5238B834200D010BD01212000FFF77B
:10561000C9FFF9E700238376436103617047C04601
:1056200010B58368002901D01C682140002A11D0E0
:105630008024E400114322420CD01A6822420BD18C
:105640000A4A0A401A60FFE7FFE7FFE7FFE7FFE7C4
:10565000FFE78368196010BD81787F20CA09044B79
:1056600092000140D258034800F056F9FFFBFFFFBB
:10567000280F0020D04A0010436870B50021802513
:105680001E680400FFF758FF134B6D011B6C0543A8
:105690009B070FD5A3785B060FD0104B1E408023CD
:1056A0009B05334362680021136020002A00FFF746
:1056B000B7FF70BDA378DB09EFD0A38A002BECD035
:1056C00001212000FFF738FFA023054ADB05324007
:1056D00005431343E6E7C04600001150FFFFFFAF4C
:1056E000FFFFFFDF70B5857E0400002D14D0FFF7AB
:1056F0007DFFA38A002B01D1280070BD2000FFF799
:1057000001FF002803D0012300252377F4E72000C0
:10571000FFF7B2FF0025EFE781787F20CA09034B2E
:1057200092000140D258024800F0F6F8280F0020FD
:10573000F04A0010F0B54378050085B0042B00D185
:1057400075E046D8022B00D183E0032B55D1504E93
:10575000504A00243378002A00D192E04E4F03E0F3
:105760000134E4B29C4213D8A342F9D962003968EB
:105770001219D2008A18002AF2D05269002AEFD0FA
:1057800069682878904701343378E4B29C42EBD9B9
:10579000424B1A78520748D504211A788A431A7066
:1057A0006B460A220021981D00F0BEF86A462B784D
:1057B0001371052353713A4B1C686269EFF3108132
:1057C00072B61368002BFCD0BFF35F8FA16101A9F3
:1057D00020E0052B11D1314B1A78D20725D50421B1
:1057E0001A788A431A702E4B1C686269EFF3108195
:1057F00072B61368002B09D1FBE7294B1C6862695C
:10580000EFF3108172B61368002BFCD0BFF35F8FEB
:10581000A1612900200000F097F86269A369BFF335
:105820005F8F0021116083F3108805B0F0BD1B4B22
:105830001A78D207F9D504211A780A431A70184B3E
:105840001C686269EFF3108172B61368002BDDD11A
:10585000FBE70120114A11788143117011789943B7
:10586000002311700421537013788B4313700C4B79
:105870001C686269EFF3108172B61368002BC5D102
:10588000FBE700220132D2B29A42FBD980E7C04640
:10589000E91C00205D240010A0120020C815002083
:1058A0002016002030B50400101E0AD00A000D1882
:1058B0000221E3681942FCD013780132A3609542BB
:1058C000F7D1E3685B0704D50421A368E3681942B4
:1058D000FBD11021E3681942FCD1E3685B0704D5D2
:1058E0000421A368E3681942FBD10123236230BD80
:1058F0007047C0460000000001B40248844601BC65
:10590000604700BF6920001001B40248844601BC12
:10591000604700BF4921001001B40248844601BC21
:10592000604700BF691E001001B40248844601BCF4
:10593000604700BF3D21001001B40248844601BC0D
:10594000604700BFA513001001B40248844601BCA3
:10595000604700BF1544001001B40248844601BCF2
:10596000604700BF59120010C900E250E444E6C08D
:10597000E884EA81EC46EE93F055F28DF4C6F69792
:10598000F86EFA7FFCA9FEBB00FE01FF000B020CC3
:1059900008120B0B0E3B0F131078119312B0154425
:1059A000181819161B43221125002611100000009B
:1059B00000000000000001000000000000000000E6
:1059C00000000200000000000000000000000300D2
:1059D00000000000000000000000FF0000000000C8
:1059E00001B5486801318E460047704609380149C3
:1059F000884701BD550A0010E00E0020000000009D
:105A0000980F002000180020000000000000000097
:105A1000101800200000000000000000100000002E
:105A2000503300004C330000543300005233000068
:105A30004D5300004D430000533400004334000038
:105A4000A525001000000000152500109D24001061
:105A500000000000000100001C4B0010204B001053
:105A60002416002010000C000000000000000000C0
:105A7000000000000000000000000000FF00000027
:105A800000000000000000002D210010E51E0010A5
:105A9000A51F00109D200010E5020010D92800105D
:04000005100001E9FD
:00000001FF
