:020000041000EA
:1000000000B5324B212058609868022188439860DF
:10001000D860186158612E4B002199600221596106
:100020000121F02299502B49196001219960352056
:1000300000F044F80222904214D00621196600F024
:1000400034F8196E01211966002018661A6600F04E
:100050002CF8196E196E196E052000F02FF8012189
:100060000842F9D1002199601B49196000215960AB
:100070001A491B48016001219960EB211966A021F2
:10008000196600F012F800219960164914480160C1
:100090000121996001BC002800D000471248134993
:1000A000086003C880F30888084703B5996A0420EC
:1000B0000142FBD001200142F8D103BD02B5186610
:1000C0001866FFF7F2FF186E186E02BD00000240BE
:1000D000000000180000070000035F00212200005C
:1000E000F4000018222000A00001001008ED00E03C
:1000F00000000000000000000000000074B24E7A12
:1001000000200420F7010010C3010010C5010010F9
:10011000C1010010C1010010C1010010C101001097
:10012000C1010010C1010010C1010010C701001081
:10013000C1010010C1010010C9010010CB01001065
:10014000CD010010CD010010CD010010CD01001037
:10015000CD010010CD010010CD010010CD01001027
:10016000CD010010CD010010CD010010CD01001017
:10017000CD010010CD010010CD010010CD01001007
:10018000CD010010CD010010CD010010CD010010F7
:10019000CD010010CD010010CD010010CD010010E7
:1001A000CD010010CD010010CD010010CD010010D7
:1001B000CD010010CD010010CD010010CD010010C7
:1001C00000BE00BE00BE00BE00BE00BEEFF3058054
:1001D000103800BEF2EB8871243700104037001051
:1001E0003402001090A31AE700201F49086006C8D7
:1001F00081F3088810471D48006800282FD10DA4FE
:100200000ECC002902D000F012F8F9E71849194A7B
:10021000002000E001C19142FCD1174988471749ED
:1002200088471749884700BEFDE701C901C29A42C5
:10023000FBD3704740370010C0000020900300201F
:10024000103A00100000042000000420103A0010B2
:10025000001004200010042000000000704709482E
:1002600001F0D0FC0047000008ED00E0000000D0E5
:10027000900300209C0800207D1A00100903001044
:10028000711B00105756000006005250ABB360536C
:10029000BC36001006005250861C0302CC360010FB
:1002A000060052505422A29DDC3600100500525028
:1002B000DE65F468103A0010F8B5C04606480749F4
:1002C000091A8B10C90FC91810B5491003D0044B77
:1002D000002B00D0984710BD900300209003002011
:1002E00000000000054B10B5002B03D00449054861
:1002F00000E000BFFFF7E2FF10BDC04600000000B5
:100300004C08002030360010F0B5DE4657464E4609
:100310004546E0B5774C8BB07749200003F01EF8D6
:10032000012705000621062000F00CF90123062212
:1003300000212000009703F089F80621092000F031
:1003400001F90123092200212000009703F07EF823
:100350002B001333EA011B031343684A8026134022
:100360008022D20513430793654B2A000993654BFE
:1003700000210893200006AB7602069603F0BAF837
:1003800023683B43236063683342FCD13E238022D1
:100390002361584B520259681142FCD145221A611F
:1003A000594B5A4E03935A4B5A4F9B46039B5A4AFA
:1003B0001B78326073725B461B68584A9846082364
:1003C00072609A460F22B1463272B2440496059783
:1003D00009E049460023CB7202239C460022E144F7
:1003E0008A72CA4559D040464D4A4E4B9446904673
:1003F000584360444343984442465B461A6001F0C8
:10040000E1FC494A494B01F076FC01F03BFDC02379
:1004100000221B0601F08DFC01F008FD060040469D
:100420000F0001F0CFFC404A404B01F064FC404A11
:10043000404B01F07EFC01F00FFD04000D00002296
:100440003D4B3000390001F074FC22002B0001F01C
:1004500070FC0022394B01F045FC8022384B12061B
:1004600004000D0001F0A8FC0028B2D100220023F6
:100470002000290001F0A0FC0028AAD129002000BA
:1004800001F0BCFC494683B21A0ADBB2CB720223EC
:100490009C46E1448A72CA45A5D1059F80213D0052
:1004A0003800049E134A336860351BBA3B6073689A
:1004B00049021BBA7B60B3681BBABB60F3681BBA06
:1004C000FB6033691BBA3B6173691BBA7B610468CB
:1004D00053680B42FCD1043014618542F7D10120EE
:1004E00000F07AFD039A322013780133137000F084
:1004F00073FD5BE70000205030360010FFFFFF9FC8
:10050000C024004400000640970800203408002062
:10051000D0020020D0070020AAAAAAAA930B51DE7D
:100520005FF36E3C0D6619000000E0FFFFFFEF4136
:10053000182D4454FB211940FCFF1F41FFFF3F4190
:10054000FFFF4F41094A10B594464024830063449D
:100550001A68C00062408034144080225201134364
:100560001C60034B9C466044416010BD04C00140C8
:1005700000400140024B18688007C00F7047C0461A
:1005800000C00640EFF3108072B6034A1368002BD8
:10059000FCD0BFF35F8F70472C0100D0BFF35F8F9B
:1005A0000022024B1A6080F3108870472C0100D0A3
:1005B00070B5EFF3108C72B60D4D2B68002BFCD08C
:1005C000BFF35F8F0724CB08C618C05C01230C4023
:1005D000A3401C000440034207D118433070BFF30E
:1005E0005F8F2C608CF3108870BD100001F0C4FA8E
:1005F0002C0100D00021044B044ABFF35F8F02C3DB
:100600009342FAD17047C046000100D0800100D06B
:10061000044A1078431CDBB2172B00D91023137047
:100620007047C046D402002001238340002904D033
:10063000034A1360034A13607047034A1360FBE7E1
:1006400080E200E000E100E080E100E0024B1030D9
:100650009B688000C058704700ED00E070B50D0049
:10066000EFF3108672B60F4A1368002BFCD0BFF36D
:100670005F8F0D4B10309B6884001B590B4A9342CF
:1006800003D09D4201D001F08FFA074B9B681D51AA
:10069000BFF35F8FBFF35F8F0022024B1A6086F3B8
:1006A000108870BD240100D000ED00E0CD010010E5
:1006B000F0B5DE4657464E464546E0B50C0083B0E1
:1006C000EFF3108872B65D4A1368002BFCD0BFF3BD
:1006D0005F8F5B4B5B499A68030010339F00D559CD
:1006E0008D4239D0A5424AD0574EAA1B2F2A33D863
:1006F00001229246824091464846544A1268104070
:1007000001904846524A1060BFF35F8FEFF30582B5
:100710009346002A35D0934201D001F045FA2A00D1
:1007200053469A439068844208D175E04B005B18A9
:100730009B00F3189868A04234D01A000621515645
:100740000029F3DA844253D0019B002B26D04A467D
:10075000404B1A603D4B1A60394B9B68DD51BFF32B
:100760005F8FBFF35F8F0022344B1A6088F31088CD
:1007700003B0F0BCBB46B246A946A046F0BD0D0092
:10078000EAE72A0053469A4390688442D6D106206D
:1007900010561300002809DA0D0031E04A462C4BB0
:1007A0001A60D9E706201856002822DB42001118EB
:1007B000890074188A46A1689960E179D971062187
:1007C00061569971002925DBA488F11A6405241566
:1007D00054440919E0240905490D24022143998054
:1007E00013181D4A9B001178F31899711070ABE72C
:1007F00013005946002914D1FF3191711749918096
:1008000015490A789A71164A9B1B5B415A43120D8F
:100810000A7099E71349E2E70620105613000028F2
:10082000C4DA114A1149D21A083A5002400D014364
:1008300099800F4952080A43DA8085E7240100D0E5
:1008400000ED00E0CD010010D802002000E100E042
:1008500080E100E080E200E09608002001BDFFFF9B
:10086000AAAA000001BD00001203002000F0FFFF53
:1008700000F8FFFF70B5EFF3058101240443EFF3A7
:10088000108C72B6214A1368002BFCD0BFF35F8F27
:100890001F4B05001F4AED1A6D416A43120D1E4D94
:1008A0008900AE6852B27658A6421CD0062159562D
:1008B00091421CD012215956914222D01E215956E4
:1008C000914220D02A2159560324914210D0134B33
:1008D00019781A708171BFF35F8F00220B4B1A6079
:1008E0008CF3108870BDAB680D4C5C50EFE70024B2
:1008F0006100091989005B18FF21997109499980E4
:10090000E5E70124F4E70224F2E7C046240100D021
:10091000D8020020AAAA000000ED00E096080020FE
:10092000CD01001001BDFFFF054B064A1360064ACA
:10093000136053609360D360136153619361704798
:100940008080808000E400E004E400E0024B9C46EC
:1009500061448900016070474000003410B5040014
:10096000FFF756FE01002000FFF7F0FFFF23237181
:10097000BFF35F8F10BDC04610B50400FFF748FEFF
:1009800001002000FFF7E2FFFF23A380BFF35F8F8A
:1009900010BDC04683680B4810B58446614462446C
:1009A0001201090159189B185C684A680120944299
:1009B00001D802D00020C0B210BD1A680B689A425C
:1009C000F9D8F7E7FFFFFF0F0A4B1968EFF3108024
:1009D00072B60A68002AFCD0BFF35F8F1B68BFF3B2
:1009E0005F8F00221A6080F3108840BF0020002132
:1009F0007047C04680080020F8B5574645464E4629
:100A0000DE46E0B598460CAB1C780DAB1B780700B2
:100A100091469A460568002C5ED1AC7B002C3BD0F9
:100A2000660029683619033E89194B78AB73002B91
:100A300000D1EB7300238B704B700B702D4BE218C1
:100A4000BB6812019B184A461A6042465A600A9ACD
:100A50009A600B9ADA6000238B704B700B706B7B83
:100A60009B46002B2BD022005946A8686B689847FC
:100A70002A68002816D05B4658465B005B449619EE
:100A8000033BB070D118D35C002B00D073705B4671
:100A90000C706B735C4513D0F0BCBB46B246A946E4
:100AA000A046F8BD5B465B005B44033BD3189C70DB
:100AB0009119925D002A00D05A705B460B706C73DE
:100AC0004A464346387D00F0A9FB051E0AD10E9B1D
:100AD000002BE1D01D70DFE7660029683619033E60
:100AE0008919ABE75346002BF1D12100386800F09B
:100AF000BFFDECE7FFFFFF0FF0B5DE4657464E4661
:100B000045460023E0B58BB00893674B8200D4586C
:100B100000239B46099000F021FB02000B00606857
:100B2000EFF3108A72B6564601680029FCD0B2462F
:100B3000BFF35F8F21684F7B8C46002F2ED0A568B6
:100B40005A49A946791809018944494608684968FB
:100B500005000E00AD1A9E41002E5FDD02000B0065
:100B6000099800F05BFB00230022994600230692BF
:100B70000793002398466368BFF35F8F5A461A6055
:100B80008AF310884346002B12D10028C3D10BB042
:100B9000F0BCBB46B246A946A046F0BD00230022E9
:100BA0009946002306920793002300209846E2E727
:100BB000089B494618023843C047626805000E008A
:100BC000EFF3108A72B61368002BFCD0BFF35F8F6F
:100BD000002E40DB2B00334302D02369002B55D17C
:100BE0002368D97B002905D01A684800411852189B
:100BF000033A57709A7B002A00D19F73DF73E26833
:100C0000013FD35D0133D3555B4623616368BFF376
:100C10005F8F5A461A608AF310887CE7002E01D154
:100C2000002D9BD10021604600F0A0FC4B461A68C5
:100C30005B68069207934B469B6898464B46DB6879
:100C40009946E368DB19013B1B7808931B020343B9
:100C5000236100208FE72369002BC1D0069A079BF0
:100C60008021521BB34109068B4202D30122104B53
:100C700052420021049101310391494601914146BC
:100C8000200002970091FFF7B7FEBDE700F066FA7B
:100C90002A00330012184B41802109068B42E8D309
:100CA0000122034B5242E4E764080020FFFFFF0FDC
:100CB000FFFFFF7F10B5144C6368002B04D00A219E
:100CC0001248FFF743FE10BD2300114A102120688F
:100CD00000F062FB032000F035FA032000F00CFB6B
:100CE00003200C4900F054FAFFF792FC0A4B9C4693
:100CF00003232375D0231B061B6860446375074BD1
:100D000080006060DC60DAE72003002080080020BB
:100D100095090010F90A0010400000346408002012
:100D2000F0B557464E464546DE46E0B585B00193E0
:100D300010AB1B780600039300239A469846009256
:100D40007268EFF3108B72B61368002BFCD0BFF300
:100D50005F8F3568AC7B002C00D16FE067002B689B
:100D60003F19033FDB195A78AA73002A00D1EA73AE
:100D70004B4AA118B26809015218009801991060F5
:100D800051600E9991600F99D16042469A705A70E5
:100D90001A706B7B9946002B00D170E02200494607
:100DA000A8686B6898472A6800285BD04B4648467D
:100DB0005B004B44D719033BB870D118D35C002BB0
:100DC00000D07B704B460C706B734C4558D0F36869
:100DD0001B19013B18787368BFF35F8F42461A6096
:100DE0008BF310885346002B08D10002204305B036
:100DF000F0BCBB46B246A946A046F0BD039B002B03
:100E00004BD00E9B00200F999847030004000D0063
:100E10000B4342D000291ADA009A019B121BAB4106
:100E20000092019380221206934204D301231D4CA9
:100E30005B4200930194039B9A4681E77368BFF37A
:100E40005F8F1C608BF3108801204042CFE700F0D9
:100E500085F9802224184D4112060094019595428F
:100E6000E9D3E3E74B465B004B44033BD3189C704C
:100E7000D119D25D002A00D05A704B460B706C73AA
:100E8000307D009A019B00F0C9F9824600289ED06F
:100E90002100306800F0ECFB99E70020A7E7C0468E
:100EA000FFFFFF0FFFFFFF7FF8B50B000400416855
:100EB000EFF3108572B60A68002AFCD0BFF35F8F8B
:100EC0002068D9B2427B8A4209D0FF261E400268C0
:100ED0007700BE199219033A9278002A12D0FF26A1
:100EE000E2681E409219013A1B0A1278DBB29A425C
:100EF0000DD000206368BFF35F8F00221A6085F376
:100F00001088F8BD21699942F3D12261F1E700F020
:100F1000AFFBEFE7F0B504000D0006267642F717A9
:100F2000C64636196F4100B584B08F4214D811D02F
:100F300000F014F932003B00121A8B41002B15DC33
:100F4000002B3ED02000290000F012F904B080BC34
:100F5000B846F0BD8642EBD90026002700F0FEF827
:100F600032003B00121A8B41002BE9DD0023029373
:100F70000193154B3200009314483B00FFF7D0FE5D
:100F80000028DFDB00239846BC46114A114F7B6ADC
:100F90009C4504D8B96AB142D4D29C45D2D11168DB
:100FA000EFF3108072B60B68002BFCD0BFF35F8F9D
:100FB0001368BFF35F8F4146196080F3108820BF2C
:100FC000E5E7002ABED0D1E7C909001020030020C0
:100FD000800800200040054070B5060000F0BEF813
:100FE000FA2204000D00002330000021920001F0DD
:100FF000FDFF8023001969411B06994202D301209D
:1010000002494042FFF786FF70BDC046FFFFFF7FE9
:1010100070B5EFF3058305000C0084B0002B0AD0F7
:10102000164A0020536A9C4203D8926A0130AA42B1
:101030001FD304B070BD124E02930193114B0200F6
:10104000009330000B00FFF76BFE011EE8DD20BFB0
:101050003000FFF729FF094B00205A6A9442E8D874
:101060009B6A0130AB42E4D2A41A631E9C41E0B2F9
:10107000DFE7E31A5A1E9341D8B2DAE70040054091
:1010800020030020C9090010F0B5EFF30582D64611
:101090004F4646461000C0B51038EFF3108872B6C0
:1010A000214C2368002BFCD0BFF35F8F0123190074
:1010B00081401E4D1F006963AA461D4D29601D4DCC
:1010C0002E78AC463500C5402F402B4215D05346F4
:1010D0005F6A194B8500EB589F4218D36246174B45
:1010E0008E43EB581670BFF35F8F0022226088F3A7
:1010F0001088002B06D0984704E0BFF35F8F27606D
:1011000088F31088E0BCBA46B146A846F0BD0C4B47
:1011100092009C46624413681360BFF35F8F002304
:10112000236088F31088EDE7280100D000400540D7
:101130003C7005409808002084080020C00600206C
:10114000D03F054010B5034B01001800024AFFF7DD
:101150002FFA10BD9508002060360010034B596A25
:101160000A00986A596A8A42FAD1704700400540DD
:10117000064A536A9942FCD807D1044B02E05A6AE6
:10118000914202D19A6A8242F9D3704700400540E9
:1011900070B504000D00EFF3108672B61A4A13689A
:1011A000002BFCD0BFF35F8F002D1BD02000FFF77A
:1011B0004DFA164981420AD02000FFF74FFA01216B
:1011C0002000FFF731FA0123A340114A1360114BAD
:1011D000A400E550BFF35F8F00220B4B1A6086F32B
:1011E000108870BD0121A1400A4BA200D5500A4BC6
:1011F00020001A788A4305491A70FFF759FA00212E
:101200002000FFF711FAE5E7280100D0891000104F
:1012100038600540C006002098080020F0B54F4611
:10122000D6464646C0B507002E4C616A0D00A66A38
:10123000616AA942FAD18B4208D805D00120E0BCEE
:10124000BA46B146A846F0BDB242F7D9EFF3108ACC
:1012500072B6254801680029FCD0BFF35F8F0125D5
:10126000BD4022491F4C8846097889462943C9B2A6
:101270008C46414660460870391D890065630A51F5
:101280001B49B8004350216A0020294219D0616AE5
:101290000800A66A616A8142FAD18B4219D801D14D
:1012A000B24216D8CC450BD00E4B1F221D625D6397
:1012B00001233A4093400F4A136043464A461A704E
:1012C0000120BFF35F8F0022074B1A608AF310885A
:1012D000B5E70020BFF35F8F0022034B1A608AF34B
:1012E0001088ACE700400540280100D09808002095
:1012F0008408002080E200E0EFF3108C72B60A4907
:101300000B68002BFCD0BFF35F8F01238340074A9B
:101310000748136202789A430270BFF35F8F00237D
:101320000B608CF310887047280100D00040054006
:101330009808002070B505000E001400002923D085
:10134000002A12D080686B689847296800280ED060
:1013500063001B197200033B9219CB18033A9E706D
:1013600088188A5C002A11D10470300070BD7300A7
:101370009B196200033B1219CB18033A9C70881822
:101380008A5C002A05D106702000EFE75A700470CD
:10139000EBE75A700670F7E730B583600023CCB2F4
:1013A00043730133047342608373C4730D00006898
:1013B000012C06D9421C0133DBB2137003329C426C
:1013C000F9D1FF2129404B005B18C01800230338D6
:1013D000437030BD70B505000C1E07D06300016876
:1013E0001B19033BCB185A78002A01D1200070BD8D
:1013F000500080180338091800204E7848702100EA
:1014000058702800FFF796FF310004002800FFF70E
:10141000E1FF0600002C26D00028E7D02100320092
:10142000A8686B689847296800280ED073009B193C
:101430006200033B1219CB18033A9C7088188A5C2F
:10144000002A00D05A700670D0E763001B197200A2
:10145000033B9219CB18033A9E7088188A5C002AC5
:1014600000D05A7004703400C0E7C046F0B557464B
:101470004546DE464E46E0B50D006F0001687F1917
:10148000033F0400C85D83B00192CA19002850D000
:1014900043001B18033BCB185E78B446002E1AD1CC
:1014A000019E002E42D0E67B002E04D073009B19D3
:1014B000CB18033B5D70A37B002B00D1A573E573B4
:1014C00000282FD10023537003B0F0BCBB46B246B6
:1014D000A946A046F0BD72006244033A8A185178CA
:1014E0008846002151708946597032000100200061
:1014F000FFF720FF43468246002B07D05B002168A0
:101500004344033BCB185A78002A16D14246514631
:101510002000FFF70FFF2168019BCA19002BC2D1E1
:101520000028CFD043001B18033BCB180021997033
:10153000C8E7019B002BB6D1C4E7500080180338E0
:10154000091848788346484648705870414620003C
:10155000FFF7F0FE594680462000FFF73BFF41466B
:1015600002002000FFF7E6FE8046CFE7F0B55746C1
:101570004546DE464E46E0B583B00191457B04000A
:101580006F0000687F19033FC15DC219002952D066
:101590004B005B18033BC3185E78B446002E1CD189
:1015A000019E002E44D0E67B002E04D073009B19D0
:1015B000C318033B5D70A37B002B00D1A573E573BB
:1015C000002931D1002328005370617303B0F0BCAF
:1015D000BB46B246A946A046F0BD72006244033A3B
:1015E0008218507880460020507081465870320032
:1015F0002000FFF79FFE43468246002B07D05B008A
:1016000021684344033BCB185A78002A17D142463D
:1016100051462000FFF78EFE019B01002068C21991
:10162000002BC0D10029CDD04B005B18033BC31861
:1016300000209870C6E7019B002BB4D1C2E7500090
:10164000801803380918487883464846487058700F
:1016500041462000FFF76EFE594680462000FFF706
:10166000B9FE414602002000FFF764FE8046CEE747
:1016700070B5050000292CD0437B8B422ED04C0046
:1016800000686418033C0419A278002A21D0530092
:101690009B18033BC25CC6188A4202D11BE0002A99
:1016A00008D053009B18033BC3185A788A42F6D1DE
:1016B00062785A70002301222800A3706370FFF73C
:1016C000D5FE697B02002800FFF734FE6873012015
:1016D00000E0002070BD63783370EBE70122190051
:1016E000FFF7C4FEF2E7C04610B50C2082B000F050
:1016F000A9F9FEF73FFF002810D0864B864886499F
:10170000864A186059609860D9601861596198617B
:10171000D961186259625A6202B010BD804CA0674C
:1017200000F098F901227F4B1A60636C012BFCD109
:1017300003227D4B1A607A4A936B012BFCD1013353
:1017400001217A4A7A480093043300F027F90523EF
:10175000784A00930121784800F020F9774B5A68C5
:10176000FF2A02D8802252005A6080226E4B694CB8
:1017700012011A602169002905D0606900F074FA2D
:1017800001300138FDD1E0226C4B6D4819680A40E8
:10179000026002221968514001320A4004210260AD
:1017A0009A681142FCD08021664A090111608022AA
:1017B00052005A60644B2361644B5968FF2900D87A
:1017C0005A6003220121574B1A60604A93681942FC
:1017D000FCD0E023106803405D48036012680323D7
:1017E0004A4002211340594A036093681942FCD0D1
:1017F0008021584B090119608021574B49005160E5
:101800006361564B5A68FF2A00D859608022544BB6
:1018100012011A60E169002905D0606900F024FA1C
:1018200001300138FDD1E0234C4A11680B404D498D
:101830000B6080214C4B090119608021364B490017
:101840005160E361494B5A68FF2A00D859608022F1
:10185000474B12011A60216A002905D0606900F027
:1018600003FA01300138FDD1E023404A11680B40F2
:1018700040490B608021404B0901196080235B00C7
:1018800053608022244BD20223623C4B5968914220
:1018900000D25A6080223A4B12011A60616A002914
:1018A00005D0606900F0E0F901300138FDD1E02396
:1018B000324A11680B4033490B608021324B0901D9
:1018C00019608023DB025360144B63622F4B5A680C
:1018D000FF2A02D8802252005A6080222C4B12012B
:1018E0001A60A169002905D0606900F0BDF90130D6
:1018F0000138FDD1E023254A11680B4025490B60D2
:101900008021254B0901196080235B005360124B35
:10191000A36101E790030020006CDC021BB700000C
:10192000008000403CB0004030B00040002F6859BB
:1019300000800240008C864700C00240308000409A
:101940003090004030A00040001BB7003C800040B9
:101950003C9000403CA00040405973075480004038
:1019600054B000405490004054A0004060800040BB
:1019700060B000406090004060A000406C8000407B
:101980006CB000406C9000406CA00040488000406B
:1019900048B000404890004048A00040F8B504001E
:1019A0000C2017001D000E0000F05EF943011B1A09
:1019B0009901C91AC90009188901380000F054F9C1
:1019C000069B29041B0319432368002B20DB194BBA
:1019D000194DE3185A4253418022520194461B0389
:1019E000164A63441360164A13601F00AA6897439F
:1019F000FBD1C023221D9B01134321222660A0603E
:101A00001A602268002AFCDA0822E1601A60F8BD38
:101A10003F2322681340B342D9D1A3681B051B0D95
:101A20008342D4D1EE22E368D20213408B42CED15E
:101A3000EDE7C0460040FDBF00C0004000E00040B0
:101A400000F000408023024A9B000343D3627047AA
:101A500000800540AA23064A1B0113602F23054975
:101A6000D360054B19605368002BFCDA7047C04601
:101A70000040024000B0FA00006002402C4B2D4AAA
:101A800070B51A602C4A2D4B2D491A6014008B68D2
:101A90009C43FBD12B4D2C4EB54208D2013E761B08
:101AA000B60808CD984723000134B342F9D1FFF7B7
:101AB0001BFE264A214B1A60214A9368DB43DB0157
:101AC000DD09002BF9D14022214B224C224E9A678E
:101AD0005A671A67DA66B44208D223682000002BDE
:101AE00020D00834FEF748FFB442F6D31B4C1C4EFE
:101AF000C022B168200001F0E9FAB460FEF77AFD77
:101B0000FEF712FFFFF7D6F8164C174EB44208D274
:101B1000013E361BB60808CC98472B0001359E4283
:101B2000F9D170BD0834FEF719FFB442D5D3DDE713
:101B300000E00040BFCDFBFEFE7F3C0000F0004017
:101B400000C000407803002088030020FFFFFF0151
:101B500000F0014070030020780300200000002006
:101B600000ED00E0880300209003002000BEFDE7A8
:101B700010B5FFF7FBFFC0460FB400B5084883B0AF
:101B800001F054FB049B002B07D005A9180001911C
:101B900000F018F8034801F049FB0120FFF7E6FFC9
:101BA000843600109436001010B50148FFF7E4FFAA
:101BB0009836001010B5002800D110BD01F0EAFAE7
:101BC000FBE7C04610B5094A0300146884B0002C36
:101BD00008D0012200910648524203A9A0470120E3
:101BE00004B010BD01F022FB0020F9E7300800200E
:101BF000B51B001001480421014B18475003002079
:101C0000251C0010142310B50100188804331B880C
:101C1000984710BD162310B50100188802331B88A1
:101C2000984710BDF8B54746CE4680B50F1E19D06F
:101C300014239946043304000025012698464B4698
:101C40001888434621681B88984701C4431E984161
:101C5000013540420640AF42F1D13000C0BCB94628
:101C6000B046F8BD0126F8E7114A936F9B0813D2DE
:101C700010665166002905D0FFE7FFE7FFE7516FC7
:101C8000106F704704B5002801D00020C04301F058
:101C9000BFFC002104BDC046F0B5146E556E576FF1
:101CA000166FFFF7E5FF1466556657671667F0BDB8
:101CB000000000D044464D4656465F46F0B470479B
:101CC000F0BCA046A946B246BB46704748404140DA
:101CD000484018B41B4B5B68FC46019308BD04DF09
:101CE000EF21001018B4174B1B68FC46019308BD88
:101CF00000DFF92100109446134A926F920809D22E
:101D0000624618B40F4BDB68FC46019308BD0CDF3C
:101D1000B12400100C4AF0B5146E556E576F166F53
:101D20006246FFF7EEFF084A146655665767166766
:101D3000F0BD18B4034B9B68FC46019308BD08DF57
:101D400055230010B8040020000000D0FFB550401B
:101D50004240504059404B40594000E0FFB5154FBC
:101D60004C00640D03D0BC4204D10C0314D80020F5
:101D7000090D09055C00640D03D0BC4204D11C03AD
:101D80000AD800221B0D1B0501264B4009D44B40ED
:101D900003D58B4200D18242FFBD9942FCD19042D3
:101DA000FFBD0B43DB1803431343F5D0C943491868
:101DB000FFBD0000FF07000000B5FFF7C7FF80412F
:101DC00000BD00000021002805D17047C117484020
:101DD000401AFAD0C90713B5064B1B6898470CBCCC
:101DE000441CA2401005120B0349091B09051943A5
:101DF000114310BD7C0800201F04000018B4044BE0
:101E00005B6AFC46019308BD24DF8D2800100000AA
:101E1000B804002018B4044B1B6EFC46019308BDA7
:101E200060DF3F2900100000B804002018B4044B04
:101E30009B69FC46019308BD18DF7D260010000059
:101E4000B8040020024A034B00B500F0AFF900BD12
:101E5000182D4454FB2119408A0002D3920D092AFF
:101E600008DA18B4064BDB6BFC46019308BD3CDF77
:101E7000732A001000B5FFF7E5FF04BC9646F0E7B3
:101E8000B804002018B4044B1B6DFC46019308BD38
:101E900050DF212E00100000B8040020132370B57D
:101EA0001D78012D15D010DD1D48FFF7B3FE1D4C28
:101EB00001008022200001F009F9022D2DD01A48DE
:101EC000FFF7A0FE194B186070BD194B154CA364A9
:101ED000F5E7174B134C23606360A360E360236155
:101EE0006361A361E36123626362A362E3622363CC
:101EF0006363A363E36323646364A364E3642365AC
:101F00006365A365E36523666366A366E36623678B
:101F10006367A367E367A364D1E7054BA364CEE7D8
:101F200053440000B80400204C3300007C0800201B
:101F3000BD210010F0B54E464546DE4657461C0012
:101F40001300E0B589B004930594129B4D00640022
:101F5000814694466D0D640D002B02D01A000023BB
:101F600013608F4EB5426ED0002C6CD0002D00D186
:101F700074E002000B00B44267D0661EB046AE4269
:101F800063DC8022CB0F9B460B0352031B0B1343D6
:101F90001F00059B4E461B031B0B9A46634602938C
:101FA00053461A430392A84500D18BE05B46002BB1
:101FB00000D196E032003B002D1B002756429F4186
:101FC000002D00DC9DE00120039B40421911FFF72A
:101FD0004BFE00239B461D3381469A46A846079434
:101FE00018E032009A4001923300AB402000009389
:101FF000E117029A039B00F0F9FF009E019F5B46E8
:10200000A346AB409B4443465B1B361A8F41984620
:10201000002B26DD45460C2D00DD0C254B46BC1162
:102020005C4353465B1B1C412B0001346410203B76
:10203000D7D5202332005B1BDA4013003A00AA40B8
:102040001A430192D0E70022564B1000190009B044
:10205000F0BCBB46B246A946A046F0BD0022002314
:10206000F3E7079C029A039BBB4269DD002F4ADB22
:102070000298039932003B0092197B418B4219DC94
:1020800016D002998A4254D0059B002B02DA5B4697
:102090005B429B46129B002B01D05A461A60424A73
:1020A0003000121B3900FFF7B5FE02000B00CCE731
:1020B0008242E6D9029A039BB61A9F4101239C46AD
:1020C000E344E1E797422BDD5B46002B4BD1029ABC
:1020D000039B92185B41B61A9F41012344469B46DD
:1020E000D2E72D1B002D00DD6DE7029A039BBB425A
:1020F000E0DC4CD0029A039BB61A9F4101239B4619
:10210000B6E700239B46029A039BB6185F41002F57
:1021100041DAB6185F4102235B429C46E344A7E7DD
:10212000029B039CA74201D19E42CDD802000B0026
:102130008BE7039A9342A7D15B46DB07A4D5B9E7A7
:10214000BB4201D1B24291D8029A039BB61A9F4179
:10215000BB4218DC14D0029A039BB61A9F4102239B
:102160009C46E34484E7029A039B92185B41921BCE
:10217000BB411F0001235B42160044469B4683E798
:10218000029BB342E7D901239C46E34470E7029BDC
:10219000B342AFD98EE701235B429C46E34467E735
:1021A000FF0700000000F07F3304000010B500249A
:1021B00082B00094FFF7BEFE02B010BD07B56046C6
:1021C00001880A0A0230DF2AFAD1C9B2820804D390
:1021D000028840880004104300E00068014A505023
:1021E000039007BDB80400200FB403BC0CBCF0B5CD
:1021F0000124E407634000E0F0B50C0DCF0F661E2C
:102200003605891B640503D3C943404200D301311D
:10221000640D03D0661CF60A07D0E41B00207F0083
:10222000791C89078912803C24031D0DDF0F6E1E67
:1022300036059B1B6D0503D3DB43524200D30133AC
:102240006D0D03D06E1CF60A07D0ED1B00227F0037
:102250007B1C9B079B12803D2D032F1B661B58D4B4
:10226000A446202E46DA20371400BC401D00BD4095
:10227000F24033412A4380185941CB0F05D0C9435E
:10228000C043002264425041514162464D0D28D165
:102290000D0D07D100281FD0241940414941013AB2
:1022A0000D0DF9D0640006D3013000D30131002CAC
:1022B00001D140084000013A0BD4941CE40A04D137
:1022C00012051144DB071944F0BDD907204B19430F
:1022D00000E0D9070020F0BD0029DDD1002CDBD1C2
:1022E000F0BD0132C6074008CD0728434908002E3B
:1022F000E1D0D9E73C2E29DA203E40371400BC401B
:1023000000D00124F24014431A00BB401C43D317F1
:10231000ACE7AC46202F08DA20360400B4400D00AC
:10232000B540F84039412843A5E73C2F0CDA203F5F
:1023300040360400B44000D00124F84004430800B3
:10234000B1400C43C117EAE710001900002494E7DC
:102350000000F07FF0B50C0D661E3605891BE60AFD
:102360006405640D02D0651CED0A04D00020012133
:102370000905803C2403A4461C0D671E3F05DB1B9A
:10238000E70A6405640D02D0651CED0A04D0002242
:1023900001231B05803C24037740644497B484B236
:1023A00096B27443070C7E43150C6F4380B26843AA
:1023B000361802D3012000043F183004350C0019F0
:1023C0007D41844688B29AB250430C0C62431F0C84
:1023D0007C438EB27E43921902D301263604A4199F
:1023E0001604170C3618674101BC81B29AB25143EA
:1023F000040C62431B0C5C4380B25843121802D396
:102400000120000424181004130C401863412D18F7
:102410005E410020474106BC88B293B258430C0C81
:102420006343120C544389B251435B1802D3012118
:102430000904641819041A0C091862416D185641F0
:102440000020474118BCF902720D1143F0026A0DD9
:102450001043ED020A0D03D16D1940414941013B82
:10246000124E9B1B7600B3420ED26D0007D3013093
:10247000002671416646354301D1400840001B05E6
:10248000C918E4072144F0BD0BDA013306D101304D
:1024900004D101314F0D01D04908F2E7E1070020D6
:1024A000F0BD013631050020EBE70000FF0300001E
:1024B000F0B51C0D671E3F05DB1BE70A6405640DC4
:1024C00002D0661CF60A04D0002201231B05803CC2
:1024D0002403D0252D060026F6432E661E096E66BF
:1024E000CE0FF619B44649004F0D02D07E1CF60AF5
:1024F00003D000200021403F3F033E1BB600B44400
:10250000013F7F05C91B49082E6F013676089C02E2
:10251000950D25437543ED137543AD1301356D10CE
:10252000F603761B0CB4CC02450D2C43A2B2B3B219
:102530005A43270C7B43350C6F43A4B26C431B19E1
:1025400002D3012424043F191C041D0CA4187D414E
:1025500024196D41009A91B2ACB26143170C7C43CF
:102560002B0C5F4392B25A43A41802D301221204E7
:10257000BF182204230C52187B41019C6C431B1989
:10258000520ED9010A434401A01A81B2B2B251439A
:1025900003145A43360C734387B27743D617D219C4
:1025A00000277E4136049B191704160C7F185E41E4
:1025B0007316ED18F301002680337541A90F06D17B
:1025C0006400690AE8055B0A184309D22FE0042277
:1025D000944480337541A90AA8059B0A184326D361
:1025E000404149412404009A019B0D005543641B5E
:1025F0004343E41A95B286B27543170C7E43030C2D
:102600005F4392B25A43B61802D301221204BF1894
:102610003204330C52197B4152429C41002C02D4AB
:102620000022013051414008CA071043490802B056
:102630006246D7079210084BD218084B9A4203D231
:1026400012058918C919F0BD0020002A01DC3900E3
:10265000F0BD01331905F5E7FD030000FE0700009A
:1026600007DA002107E0C90FC907520D03D0C912CC
:1026700001E04C49090500207047C0464A00F2D2EB
:10268000520D013A484B9A42EAD2F0B51405091BA3
:10269000520801D3001849419B08D21812059446EC
:1026A00040A44A0CA25C0B09534353431B135343EE
:1026B0005B131202D21A13005B435B0B4C0863439B
:1026C000DB135343DB1501335B10D21A130CD21A00
:1026D00013005B438902840D21438DB29EB2754382
:1026E0000F0C7E431B0C5F438CB25C43361902D344
:1026F000012424043F193404330C64197B419D01E7
:10270000A40E2C432034A5B25543241454432D0C5D
:102710006419A411D203121B95B28EB27543170C23
:102720007E430C0C674393B26343F61802D3012334
:102730001B04FF183304340C5B197C41DB18644123
:10274000DB18002363419EB276439DB21F0C7D438C
:102750007F436C04ED0BA4197D4106028F08361BE4
:10276000AF417D07F6086E41B4B295B26C433714A1
:102770007D43120C5743B6B25643EA17AD190026F3
:1027800072411204BF182E042A0C36197A410832FD
:10279000521117D29D0A9C05D11710196941614445
:1027A000F0BD0000FF070000FE070000F8EBDFD6D9
:1027B000CDC5BEB8B2ADA8A4A09C9995928F8D8AC4
:1027C0008885838152415D0ADC05D11714194D417A
:1027D0002B006343A6B27643A2B2270C7A437F4311
:1027E0005104D20B89197A41D218D2188005494276
:1027F000904102D4002301345D4160086908ED076F
:1028000028436144F0BDC046624618CA94465A4601
:10281000002A20DB04E0624618CA944600291ADA2E
:10282000C01861415B463B415C46B4405246FA40A9
:10283000224344464D4662416B41904699462B46A1
:10284000B3403D41FC401C4352465B46A241AB4174
:1028500092469B467047C01AA1414B463B414C46AD
:10286000B4404246FA40224354465D4662416B41C1
:1028700092469B462B46B3403D41FC401C4342469A
:102880004B46A241AB41904699467047002200B5A5
:10289000203200F010F8080000BD002200B500F062
:1028A0000CF8CA179A4200D100BDD8430121C907CC
:1028B000414000BD00220B150AD410B5944600F02B
:1028C00079F81414013400DA0021CB17144C204796
:1028D0000020002170476244343A0CD40C2A07DAF5
:1028E00004009140904052422032D440214310BD18
:1028F000D843D94310BD203207D40C4694405242ED
:1029000020321141D040204310BD0800C9172032A9
:1029100003D452422032104110BD1800190010BDDE
:10292000D728001000210A00002104E000210A003D
:10293000C11704E00022002306E0C0460022CB17A6
:1029400058405940C01A994130B5184CA21A002974
:1029500003D1010010D00020203A4C1512D104D22E
:10296000013A001849414C0DFAD3114CA24204D24D
:1029700012058918DB07C91830BDD243520D00205B
:102980000021F5E703D4013A00184941FBD50B3289
:102990004405C00A4D052843C90A640003D0002439
:1029A00060416141E1E7E0D34408F8E73204000008
:1029B000FE0700000A0DCC0F531E1B05C91A520555
:1029C00003D3C943404200D30131520D03D0531CFD
:1029D000DB0A07D0121B00206400611C89078912E2
:1029E000803A1203014BD21A70470000FF03000027
:1029F000023225D40C2A1CDA1125AD1A0B002B410A
:102A0000083207350600EE40904091403143F0CC4B
:102A100063431A1500235A41554356435743BF0297
:102A2000F412760576196741ED177F19801BB941BD
:102A300070470C220020C917490001310905DBE766
:102A40000902030E194300025342203208D40C003D
:102A500019419440D84020430022504151417047D1
:102A60000800C917203B2032F1D5002000210022A8
:102A70007047F0B5FFF71EF900F00EF800F030F8DF
:102A800006E0F0B5FFF716F900F006F800F046F89A
:102A9000FFF716F9F0BD000000B5FFF78BFF30A47B
:102AA000FFF7A6FF00242C4D2C4ED20702D3F6438D
:102AB0006D426641520004D2A246A346A846B146E2
:102AC00003E0A046A146AA46B3466EA4A446012749
:102AD0001F26FFF7A0FE0137013E212FF9D100BDCF
:102AE000594684B28DB26C43061475430B145E4391
:102AF00082B25A43AD18EA1700D7D2431204B6186F
:102B00002A042B0C12197341404649469D009B171D
:102B1000920F2A43904199413E2210E7494684B2E0
:102B20008DB26C43061475430B145E4382B25A4354
:102B3000AD18EA1700D7D2431204B6182A042B0C9A
:102B400012197341504659469D009B17920F2A4314
:102B5000504159413E22F2E6BB4DF09DC556F63636
:102B60007D5100001A61140085880A00FB211900BC
:102B7000F0B5FFF79FF8404D0C002C4001D0AC425F
:102B800002D1090D090500201C002C4001D0AC42E7
:102B900002D11B0D1B0500220026ED02002B04D5DF
:102BA00002266B40694000D476424F1904D5994201
:102BB0000CDD0136694003E0BB4207DA013E6B40A1
:102BC000070010003A000F0019003B0040B4002A33
:102BD0000FD1002B0AD05C006415013409D14C00E0
:102BE0006415013402D10139013B02E000200021CB
:102BF0002EE0FFF75DFC3E22FFF750FE82468B463B
:102C00000020002180460122920791461DA4A4467F
:102C100001271F26FFF7F8FD0137013E212FF9D1CB
:102C20004A4653460C3A01246407002752081B0009
:102C300005D49341001979416408F7D104E0534168
:102C4000001BB9416408F1D1CE0749104008304358
:102C500040BC002E0AD0094C094D01D5E443ED4398
:102C6000F60701D100196941001969413D22FFF7BA
:102C700066FEFFF725F8F0BD0000F07F8D305A8822
:102C8000A8F64332694FBB610567AC1DB16E409633
:102C9000FCBAAD0F72DB0BABA66EF50739BD9FE535
:102CA00076ABFE034B6297BA5BD5FF01D694DBDDB2
:102CB000AAFAFF005DEAEE5655FF7F006E77B7AACD
:102CC000EAFF3F00BCBB5555FDFF1F00DEADAAAAC1
:102CD000FFFF0F006F5555F5FFFF0700ABAAAAFED7
:102CE000FFFF03005555D5FFFFFF0100ABAAFAFF18
:102CF000FFFF00005555FFFFFF7F0000ABEAFFFF1D
:102D0000FF3F000055FDFFFFFF1F0000ABFFFFFF6F
:102D1000FF0F0000F5FFFFFFFF070000FFFFFFFFB1
:102D2000FF0300000000000000020000000000009F
:102D30000001000000000000800000000000000012
:102D40004000000000000000200000000000000023
:102D5000100000000000000008000000000000005B
:102D6000040000000000000002000000000000005D
:102D70000100000000000080000000000000004092
:102D800000000000F0B5FFF715FE54A4FFF730FE79
:102D9000002904DA204C214D00196941013A04B49C
:102DA000012752A6002201239B0730CEB446001B08
:102DB000A9410BD47E4220361D003D411C00B44089
:102DC0001600FE40344362416B4101E00019694145
:102DD00066460137212FE8D185B29EB275430714AC
:102DE0007E43190C4F4384B24C43F117361900242B
:102DF000614109047F183404310C64197941A40F2E
:102E00008800204389178018594104BC52423E3241
:102E1000FFF795FDF0BD00006BDE73F4FD855C2CC3
:102E2000F0B54F0050D27F154ED001374FD0FFF78D
:102E3000C1FD04B44902C20D1143400201272BA673
:102E4000B446002200237E4220360D003D410C0096
:102E5000B4400600FE40344344414D41AE0F05D11D
:102E600020002900664630CE121BAB410824A44442
:102E70000137212FE7D18900891012184B4180BCFE
:102E800017A413CC0137784379437C434F05C9120B
:102E9000CD17C0196941A702A415CD17C9196C41F6
:102EA000DD17801859416C413E22CD17AC4208D045
:102EB00000090E0730430909260731432411043A5B
:102EC000F3E7FFF73CFDF0BD02490020F0BD0249E9
:102ED0000020F0BD0000F0FF0000F07FAAB8000065
:102EE0006BDE1300A3EF0F0021170B00F34B98BF0D
:102EF000EC23F319D6104DCDE3FB470E7AB9BC8A0B
:102F0000DBC18907CC542C021846E103053083E766
:102F1000B029F8011E1FE0874505FE00249E41AC44
:102F2000A9807F008117624515E03F00E610ABA93C
:102F300002F81F008858455500FE0F00C4AAA90AD0
:102F400080FF070056455501E0FF0300ABA92A00AA
:102F5000F8FF010045550500FEFF0000AAAA008009
:102F6000FF7F0000551500E0FF3F0000AB0200F8B6
:102F7000FF1F0000550000FEFF0F00000B0080FF48
:102F8000FF0700000100E0FFFF0300000000F8FF62
:102F9000FF0100000000FEFFFF0000000080FFFFB7
:102FA0007F00000000E0FFFF3F00000000F8FFFF8F
:102FB0001F00000000FEFFFF0F00000080FFFFFF6A
:102FC00007000000E0FFFFFF03000000F8FFFFFF25
:102FD00001000000FEFFFFFF000000000000008075
:102FE0000000000000000040000000005143434387
:102FF000C9188C46110C83B24B4310B4040C6143C6
:1030000092B280B2504362431C041B0C001910BCE6
:1030100059411304120CC01851416144704700001B
:10302000132310B512481C78FEF7F4FD0100012CA3
:103030000AD003DD80220F4800F048F80E48FEF762
:10304000E1FD0E4B186010BD0A4C5422200000F028
:103050003DF80B4B6365A365E36523666366A36672
:10306000E36623676367A367E3672362E361E5E7DA
:1030700053460000B80500204C3300007C080020B7
:103080008530001007B5604601880A0A0230DF2A41
:10309000FAD1C9B2820804D30288408800041043E0
:1030A00000E00068014A5050039007BDB8050020B9
:1030B00001480421014B184760030020251C001023
:1030C000014B1B681847000060030020014B5B6840
:1030D0001847000060030020F0B546464F46D6462C
:1030E000C0B5437D80460E001700002B4BD0002A50
:1030F00032DD274B01259A464B1E002400209946BD
:1031000007E0335D0A2B2CD02B0001340135BB4284
:1031100013DA002CF5D133780A2BF5D143461B7D09
:10312000002BF1D14346504602211B6898472800E6
:103130002B0001340135BB42EBDB874204DD434603
:10314000391A1B6830189847F619013E33780D3B41
:103150005A42534142461375E0BCBA46B146A846AE
:10316000F0BD4B461B5D0D2BCED0A042DADA4346B4
:10317000211A1B68301898474346504602211B68A5
:1031800098472800D4E70368110030009847E3E728
:103190000C370010F0B5CE46474680B583B06B467D
:1031A0000600DD1D2870FDF7D9FF00231A4A12180A
:1031B0004B41802109068B4202D30122174B524218
:1031C00017490800884600F02BFA164B81461C6808
:1031D000002C14D0144F02E02469002C0FD0236877
:1031E000002BF9D03B68002B01D0A342F4D1200082
:1031F00001222900FFF770FF2469002CEFD14B4614
:10320000002B05D1300003B0C0BCB946B046F0BDBC
:10321000404600F0F5F9F5E740420F00FFFFFF7F61
:1032200070030020280800202C080020F0B5DE469E
:1032300057464E464546E0B585B0070000F0A6F972
:103240000600FDF78BFF00232B4A12184B4180210B
:1032500009068B4202D30122284B5242284908001A
:103260008B4600F0DDF9274B01901C689A46002C34
:103270003BD0254B984602ABDD1D0A23994602E060
:103280002469002C17D02368002BF9D043461B6813
:10329000002B01D0A342F3D1200032003900FFF708
:1032A0001BFF4B462000012229002B70FFF714FF63
:1032B0002469002CE7D1019B002B18D153461C68D0
:1032C000002C06D06368002B0BD098472469002C93
:1032D000F8D1300005B0F0BCBB46B246A946A046C6
:1032E000F0BD2469002CEDD1F3E70028F1D0584659
:1032F00000F086F9E2E7C04640420F00FFFFFF7F83
:1033000070030020280800202C08002010B5024877
:1033100000F004F810BDC0467408002030B5002548
:1033200089B004000922002101A80095FFF7C8FE1A
:103330000922002105A80495FFF7C2FE4B236A4627
:103340006846137004A90D2200F052F915210822D5
:1033500020006944FFF7BAFE09B030BDF0B5DE4683
:1033600057464E4645468846E0B583B006000524DC
:10337000FDF708F943461F791C57314B8246F31875
:103380005A4253419B009C462E4A13009346624684
:103390009B5801229946BA402023013ADB1B002C9E
:1033A00036DB9C4246DCA2404B46134242D101929E
:1033B000002F1CD04246434652781B7812021A4313
:1033C00043469B7880251B0413434246D078002255
:1033D00000061843AD015300C15AA94200D2091991
:1033E000A31812339B0001329951BA42F3D34D46D0
:1033F000019B62461D435B4650469D50FDF7CEF84B
:10340000200003B0F0BCBB46B246A946A046F0BDC2
:10341000002B0FDB1100484699401C00019101422E
:1034200006D1C5E7150049469D401C00294204D03D
:10343000013BF7D20448FEF79FFB0195B8E7C04671
:103440000000D0AFB806002010370010F0B5574686
:103450004E464546DE468946E0B583B00CA90D7858
:103460004946490088464944C90046183700340097
:10347000DC3784463868CC3483462068C024CC319D
:10348000A401614421438024A4020C6069424D419F
:103490001E216D428D43164901908A465544052BE5
:1034A0000CD9A0201F214005D83654010443053211
:1034B000053B3C600A403560052BF6D852019B065F
:1034C000134342464A44D20062441000DC32136087
:1034D0000300D8331D605B461360019BCC30036052
:1034E00003B0F0BCBB46B246A946A046F0BDC046FC
:1034F0009FE00000F0B501258D400468AC430460F6
:10350000002B2ED04D006C18E400041926001F6813
:10351000C83637605F68DC3477609F68DB68B76007
:1035200023606B18DB001D008024D0354519640131
:103530002C4380252D06256025600125124C2E0088
:103540008C4084600C1DA640802408318D401F21D2
:10355000A4010443C0180A40D830266025600260E8
:10356000F0BD4D006C18E400041926008027C83611
:103570007F023760F8277F027760C027DC343F0383
:10358000B7602360CDE7C0460101010110B5830794
:103590000AD00300032102E001330B4205D01A7860
:1035A000002AF9D1181A10BD030019680C4A0D4CF5
:1035B0008A188A4322420FD15968094A04338A186B
:1035C0008A43224208D15968054A04338A188A433B
:1035D0002242F1D000E001331A78002AFBD1E1E762
:1035E000FFFEFEFE80808080F8B5C046000000002F
:1035F00001B40248844601BC604700BFF9010020C5
:1036000001B40248844601BC604700BF5D01002050
:1036100001B40248844601BC604700BFB9020020E3
:1036200001B40248844601BC604700BFC1000020CD
:103630003836001014FF000001F8C06040602160BF
:103640002C0022A001FF01F800F7460001FB030057
:1036500026A001FF01F900F700F04D0001FD030075
:10366000486172647761726520616C61726D2025BA
:103670006420616C726561647920636C61696D6559
:10368000640000000A2A2A2A2050414E4943202A79
:103690002A2A0A000A0000004861726420617373DC
:1036A0006572740052656C6561736500626F6F745A
:1036B000325F77323571303830000000312E352ED0
:1036C000300000007069636F0000000070696F5F78
:1036D0006261636B73636174746572004D61722023
:1036E000323020323032330006005250D3F075426F
:1036F000A436001006005250E182887FAC360010DC
:1037000006005250BBFF3CB6C43600100D0A000044
:103710004E6F2070726F6772616D207370616365A8
:0437200000000000A5
:10372400E8360010F436001088020010003700104C
:0C37340094020010A0020010AC02001073
:10374000F0B5C646150000B504001E000268EFF390
:10375000108172B61368002BFCD0BFF35F8F042377
:10376000E356002B2DDB2268BFF35F8F0020106033
:1037700081F31088D0221206127852B290469A42F3
:1037800003D1002080BCB846F0BD00270BE02368C1
:10379000BFF35F8F1F6081F310882800310000F0B5
:1037A000CFF80028EDD12268EFF3108172B61368CC
:1037B000002BFCD0BFF35F8F23797F2BE7D94346E3
:1037C00002E0D0231B061B6823712368BFF35F8FC1
:1037D00000221A6081F310880120D3E70268EFF31A
:1037E000108172B61368002BFCD0BFF35F8FFF23EC
:1037F00003710368BFF35F8F00221A6081F31088A2
:1038000040BF704710B5084C2378002B0AD18023A5
:10381000064807495B051A68C25004338B42FAD147
:103820000123237010BDC04694080020D00600106C
:103830000001001010B5014B984710BDD1060020C3
:10384000034B1A68C0239B009343024A13607047DE
:103850000C8001400C900140054B1A6880239B00AE
:103860005340C02292001340024A13607047C04682
:103870000C8001400C9001401423F0B5D6464F4611
:1038800046469A46814618880433C0B598460E00CD
:103890001B8826491400984753460700188843465A
:1038A00023491B88984753460500188843462149F9
:1038B0001B8898478046FFF7A5FFB847A847FFF742
:1038C000CBFF221E20D0C02108270220490511E08D
:1038D000002C14D0131B0D2B20D9002D0AD023004F
:1038E000002A05D00B6E013A3370130001362343D2
:1038F000002B09D03D008B6A1D401842E8D1002DF5
:10390000EDD123001343F5D1FFF79AFFC047FFF72E
:1039100091FFE0BCBA46B146A846F0BD4B461B78C5
:10392000013C0B6601239C46E144E8E74946000060
:1039300045580000464300007047C04600000000A4
:1039400001B40248844601BC604700BF111000105A
:10395000CDAB0000100000000000000000000100DE
:103960000000000000000000000002000000000055
:103970000000000000000300000000000000000044
:103980000000FF000000000001B5486801318E46CC
:103990000047704609380149884701BD7508001085
:1039A0003803002000000000B8030020E8070020D2
:1039B0000000000000000000F807002000000000E8
:1039C00000000000100000000000000000000000E7
:1039D000503300004C3300005433000052330000D9
:1039E0004D5300004D4300005334000043340000A9
:1039F0000000000000000000B1300010F51B0010B6
:103A00009D1E001021300010E50200100D33001043
:04000005100001E9FD
:00000001FF
